{
  "contractName": "Record",
  "abi": [
    {
      "constant": true,
      "inputs": [],
      "name": "creator",
      "outputs": [
        {
          "name": "",
          "type": "address"
        }
      ],
      "payable": false,
      "stateMutability": "view",
      "type": "function"
    },
    {
      "constant": true,
      "inputs": [],
      "name": "data_changable",
      "outputs": [
        {
          "name": "",
          "type": "bool"
        }
      ],
      "payable": false,
      "stateMutability": "view",
      "type": "function"
    },
    {
      "constant": true,
      "inputs": [],
      "name": "start_date",
      "outputs": [
        {
          "name": "",
          "type": "uint256"
        }
      ],
      "payable": false,
      "stateMutability": "view",
      "type": "function"
    },
    {
      "constant": true,
      "inputs": [],
      "name": "end_date",
      "outputs": [
        {
          "name": "",
          "type": "uint256"
        }
      ],
      "payable": false,
      "stateMutability": "view",
      "type": "function"
    },
    {
      "constant": true,
      "inputs": [],
      "name": "dead_reason",
      "outputs": [
        {
          "name": "",
          "type": "string"
        }
      ],
      "payable": false,
      "stateMutability": "view",
      "type": "function"
    },
    {
      "constant": true,
      "inputs": [],
      "name": "main_found_disease",
      "outputs": [
        {
          "name": "",
          "type": "string"
        }
      ],
      "payable": false,
      "stateMutability": "view",
      "type": "function"
    },
    {
      "constant": true,
      "inputs": [],
      "name": "relating_found_disease",
      "outputs": [
        {
          "name": "",
          "type": "string"
        }
      ],
      "payable": false,
      "stateMutability": "view",
      "type": "function"
    },
    {
      "constant": true,
      "inputs": [],
      "name": "original_entry",
      "outputs": [
        {
          "name": "",
          "type": "string"
        }
      ],
      "payable": false,
      "stateMutability": "view",
      "type": "function"
    },
    {
      "constant": true,
      "inputs": [],
      "name": "time_created",
      "outputs": [
        {
          "name": "",
          "type": "uint256"
        }
      ],
      "payable": false,
      "stateMutability": "view",
      "type": "function"
    },
    {
      "constant": true,
      "inputs": [
        {
          "name": "",
          "type": "uint256"
        }
      ],
      "name": "stages",
      "outputs": [
        {
          "name": "",
          "type": "address"
        }
      ],
      "payable": false,
      "stateMutability": "view",
      "type": "function"
    },
    {
      "constant": true,
      "inputs": [],
      "name": "is_catastrophe",
      "outputs": [
        {
          "name": "",
          "type": "bool"
        }
      ],
      "payable": false,
      "stateMutability": "view",
      "type": "function"
    },
    {
      "constant": true,
      "inputs": [],
      "name": "is_side_effect",
      "outputs": [
        {
          "name": "",
          "type": "bool"
        }
      ],
      "payable": false,
      "stateMutability": "view",
      "type": "function"
    },
    {
      "constant": true,
      "inputs": [],
      "name": "previous_medical_unit",
      "outputs": [
        {
          "name": "",
          "type": "string"
        }
      ],
      "payable": false,
      "stateMutability": "view",
      "type": "function"
    },
    {
      "constant": true,
      "inputs": [],
      "name": "end_health_status",
      "outputs": [
        {
          "name": "",
          "type": "string"
        }
      ],
      "payable": false,
      "stateMutability": "view",
      "type": "function"
    },
    {
      "constant": true,
      "inputs": [],
      "name": "profile",
      "outputs": [
        {
          "name": "",
          "type": "address"
        }
      ],
      "payable": false,
      "stateMutability": "view",
      "type": "function"
    },
    {
      "constant": true,
      "inputs": [],
      "name": "next_medical_unit",
      "outputs": [
        {
          "name": "",
          "type": "string"
        }
      ],
      "payable": false,
      "stateMutability": "view",
      "type": "function"
    },
    {
      "constant": true,
      "inputs": [],
      "name": "to_next_medical_unit_date",
      "outputs": [
        {
          "name": "",
          "type": "uint256"
        }
      ],
      "payable": false,
      "stateMutability": "view",
      "type": "function"
    },
    {
      "constant": true,
      "inputs": [],
      "name": "end_reason",
      "outputs": [
        {
          "name": "",
          "type": "string"
        }
      ],
      "payable": false,
      "stateMutability": "view",
      "type": "function"
    },
    {
      "constant": true,
      "inputs": [],
      "name": "classtype",
      "outputs": [
        {
          "name": "",
          "type": "uint8"
        }
      ],
      "payable": false,
      "stateMutability": "view",
      "type": "function"
    },
    {
      "constant": true,
      "inputs": [],
      "name": "dead_detailed_reason",
      "outputs": [
        {
          "name": "",
          "type": "string"
        }
      ],
      "payable": false,
      "stateMutability": "view",
      "type": "function"
    },
    {
      "constant": true,
      "inputs": [],
      "name": "dead_time",
      "outputs": [
        {
          "name": "",
          "type": "uint256"
        }
      ],
      "payable": false,
      "stateMutability": "view",
      "type": "function"
    },
    {
      "inputs": [
        {
          "name": "_addr",
          "type": "address"
        }
      ],
      "payable": false,
      "stateMutability": "nonpayable",
      "type": "constructor"
    },
    {
      "anonymous": false,
      "inputs": [
        {
          "indexed": true,
          "name": "stage",
          "type": "address"
        }
      ],
      "name": "StageAdded",
      "type": "event"
    },
    {
      "anonymous": false,
      "inputs": [
        {
          "indexed": true,
          "name": "_addr",
          "type": "address"
        }
      ],
      "name": "Confirm",
      "type": "event"
    },
    {
      "anonymous": false,
      "inputs": [
        {
          "indexed": false,
          "name": "_status",
          "type": "string"
        }
      ],
      "name": "StartVariablesSet",
      "type": "event"
    },
    {
      "anonymous": false,
      "inputs": [
        {
          "indexed": false,
          "name": "_status",
          "type": "string"
        }
      ],
      "name": "EndVariablesSet",
      "type": "event"
    },
    {
      "anonymous": false,
      "inputs": [
        {
          "indexed": true,
          "name": "creator",
          "type": "address"
        }
      ],
      "name": "ContractCreated",
      "type": "event"
    },
    {
      "constant": false,
      "inputs": [
        {
          "name": "_addr",
          "type": "address"
        }
      ],
      "name": "addStage",
      "outputs": [],
      "payable": false,
      "stateMutability": "nonpayable",
      "type": "function"
    },
    {
      "constant": false,
      "inputs": [
        {
          "name": "_priv_key",
          "type": "string"
        }
      ],
      "name": "confirm",
      "outputs": [],
      "payable": false,
      "stateMutability": "nonpayable",
      "type": "function"
    },
    {
      "constant": false,
      "inputs": [
        {
          "name": "_start_date",
          "type": "uint256"
        },
        {
          "name": "_original_entry",
          "type": "string"
        },
        {
          "name": "_previous_medical_unit",
          "type": "string"
        }
      ],
      "name": "setStartVariables",
      "outputs": [],
      "payable": false,
      "stateMutability": "nonpayable",
      "type": "function"
    },
    {
      "constant": false,
      "inputs": [
        {
          "name": "_end_date",
          "type": "uint256"
        },
        {
          "name": "_end_reason",
          "type": "string"
        },
        {
          "name": "_end_health_status",
          "type": "string"
        },
        {
          "name": "_main_found_disease",
          "type": "string"
        },
        {
          "name": "_relating_found_disease",
          "type": "string"
        },
        {
          "name": "_next_medical_unit",
          "type": "string"
        },
        {
          "name": "_to_next_medical_unit_date",
          "type": "uint256"
        },
        {
          "name": "_is_catastrophe",
          "type": "bool"
        },
        {
          "name": "_is_side_effect",
          "type": "bool"
        },
        {
          "name": "_dead_time",
          "type": "uint256"
        },
        {
          "name": "_dead_reason",
          "type": "string"
        },
        {
          "name": "_dead_detailed_reason",
          "type": "string"
        }
      ],
      "name": "setEndVariables",
      "outputs": [],
      "payable": false,
      "stateMutability": "nonpayable",
      "type": "function"
    }
  ],
  "bytecode": "0x60806040526001600260016101000a81548160ff02191690831515021790555060016002806101000a81548160ff0219169083600481111561003d57fe5b021790555034801561004e57600080fd5b5060405160208062001e0783398101806040528101908080519060200190929190505050336000806101000a81548173ffffffffffffffffffffffffffffffffffffffff021916908373ffffffffffffffffffffffffffffffffffffffff16021790555042600181905550600060048111156100c657fe5b8173ffffffffffffffffffffffffffffffffffffffff1663ccccac1f6040518163ffffffff167c0100000000000000000000000000000000000000000000000000000000028152600401602060405180830381600087803b15801561012a57600080fd5b505af115801561013e573d6000803e3d6000fd5b505050506040513d602081101561015457600080fd5b8101908080519060200190929190505050600481111561017057fe5b14151561017c57600080fd5b80600260036101000a81548173ffffffffffffffffffffffffffffffffffffffff021916908373ffffffffffffffffffffffffffffffffffffffff1602179055503373ffffffffffffffffffffffffffffffffffffffff167fcf78cf0d6f3d8371e1075c69c492ab4ec5d8cf23a1a239b6a51a1d00be7ca31260405160405180910390a250611bf680620002116000396000f300608060405260043610610149576000357c0100000000000000000000000000000000000000000000000000000000900463ffffffff16806302d05d3f1461014e57806307e033cd146101a557806323bd6c92146101d457806327d795d71461028d57806329f546fc146102b857806333bbae93146104fb57806342e07fdf14610526578063433aa526146105b65780634d5109231461064657806357cfb23e146106d6578063639d7a0714610766578063845ddcb2146107915780638685fc28146107fe57806388bd8c421461082d578063914b6d031461085c578063a1505469146108ec578063ab60636c1461097c578063b2dd3616146109d3578063b34d102814610a63578063c032f40314610a8e578063c7ab74a414610b1e578063c9663dc114610b87578063ccccac1f14610bca578063d59fa21014610c03578063e4fa4fce14610c93575b600080fd5b34801561015a57600080fd5b50610163610cbe565b604051808273ffffffffffffffffffffffffffffffffffffffff1673ffffffffffffffffffffffffffffffffffffffff16815260200191505060405180910390f35b3480156101b157600080fd5b506101ba610ce3565b604051808215151515815260200191505060405180910390f35b3480156101e057600080fd5b5061028b60048036038101908080359060200190929190803590602001908201803590602001908080601f0160208091040260200160405190810160405280939291908181526020018383808284378201915050505050509192919290803590602001908201803590602001908080601f0160208091040260200160405190810160405280939291908181526020018383808284378201915050505050509192919290505050610cf6565b005b34801561029957600080fd5b506102a2610e15565b6040518082815260200191505060405180910390f35b3480156102c457600080fd5b506104f960048036038101908080359060200190929190803590602001908201803590602001908080601f0160208091040260200160405190810160405280939291908181526020018383808284378201915050505050509192919290803590602001908201803590602001908080601f0160208091040260200160405190810160405280939291908181526020018383808284378201915050505050509192919290803590602001908201803590602001908080601f0160208091040260200160405190810160405280939291908181526020018383808284378201915050505050509192919290803590602001908201803590602001908080601f0160208091040260200160405190810160405280939291908181526020018383808284378201915050505050509192919290803590602001908201803590602001908080601f01602080910402602001604051908101604052809392919081815260200183838082843782019150505050505091929192908035906020019092919080351515906020019092919080351515906020019092919080359060200190929190803590602001908201803590602001908080601f0160208091040260200160405190810160405280939291908181526020018383808284378201915050505050509192919290803590602001908201803590602001908080601f0160208091040260200160405190810160405280939291908181526020018383808284378201915050505050509192919290505050610e1b565b005b34801561050757600080fd5b50610510610ff8565b6040518082815260200191505060405180910390f35b34801561053257600080fd5b5061053b610ffe565b6040518080602001828103825283818151815260200191508051906020019080838360005b8381101561057b578082015181840152602081019050610560565b50505050905090810190601f1680156105a85780820380516001836020036101000a031916815260200191505b509250505060405180910390f35b3480156105c257600080fd5b506105cb61109c565b6040518080602001828103825283818151815260200191508051906020019080838360005b8381101561060b5780820151818401526020810190506105f0565b50505050905090810190601f1680156106385780820380516001836020036101000a031916815260200191505b509250505060405180910390f35b34801561065257600080fd5b5061065b61113a565b6040518080602001828103825283818151815260200191508051906020019080838360005b8381101561069b578082015181840152602081019050610680565b50505050905090810190601f1680156106c85780820380516001836020036101000a031916815260200191505b509250505060405180910390f35b3480156106e257600080fd5b506106eb6111d8565b6040518080602001828103825283818151815260200191508051906020019080838360005b8381101561072b578082015181840152602081019050610710565b50505050905090810190601f1680156107585780820380516001836020036101000a031916815260200191505b509250505060405180910390f35b34801561077257600080fd5b5061077b611276565b6040518082815260200191505060405180910390f35b34801561079d57600080fd5b506107bc6004803603810190808035906020019092919050505061127c565b604051808273ffffffffffffffffffffffffffffffffffffffff1673ffffffffffffffffffffffffffffffffffffffff16815260200191505060405180910390f35b34801561080a57600080fd5b506108136112ba565b604051808215151515815260200191505060405180910390f35b34801561083957600080fd5b506108426112cd565b604051808215151515815260200191505060405180910390f35b34801561086857600080fd5b506108716112e0565b6040518080602001828103825283818151815260200191508051906020019080838360005b838110156108b1578082015181840152602081019050610896565b50505050905090810190601f1680156108de5780820380516001836020036101000a031916815260200191505b509250505060405180910390f35b3480156108f857600080fd5b5061090161137e565b6040518080602001828103825283818151815260200191508051906020019080838360005b83811015610941578082015181840152602081019050610926565b50505050905090810190601f16801561096e5780820380516001836020036101000a031916815260200191505b509250505060405180910390f35b34801561098857600080fd5b5061099161141c565b604051808273ffffffffffffffffffffffffffffffffffffffff1673ffffffffffffffffffffffffffffffffffffffff16815260200191505060405180910390f35b3480156109df57600080fd5b506109e8611442565b6040518080602001828103825283818151815260200191508051906020019080838360005b83811015610a28578082015181840152602081019050610a0d565b50505050905090810190601f168015610a555780820380516001836020036101000a031916815260200191505b509250505060405180910390f35b348015610a6f57600080fd5b50610a786114e0565b6040518082815260200191505060405180910390f35b348015610a9a57600080fd5b50610aa36114e6565b6040518080602001828103825283818151815260200191508051906020019080838360005b83811015610ae3578082015181840152602081019050610ac8565b50505050905090810190601f168015610b105780820380516001836020036101000a031916815260200191505b509250505060405180910390f35b348015610b2a57600080fd5b50610b85600480360381019080803590602001908201803590602001908080601f0160208091040260200160405190810160405280939291908181526020018383808284378201915050505050509192919290505050611584565b005b348015610b9357600080fd5b50610bc8600480360381019080803573ffffffffffffffffffffffffffffffffffffffff1690602001909291905050506118de565b005b348015610bd657600080fd5b50610bdf611a6f565b60405180826004811115610bef57fe5b60ff16815260200191505060405180910390f35b348015610c0f57600080fd5b50610c18611a81565b6040518080602001828103825283818151815260200191508051906020019080838360005b83811015610c58578082015181840152602081019050610c3d565b50505050905090810190601f168015610c855780820380516001836020036101000a031916815260200191505b509250505060405180910390f35b348015610c9f57600080fd5b50610ca8611b1f565b6040518082815260200191505060405180910390f35b6000809054906101000a900473ffffffffffffffffffffffffffffffffffffffff1681565b600260019054906101000a900460ff1681565b60011515600260019054906101000a900460ff161515141515610d1857600080fd5b3373ffffffffffffffffffffffffffffffffffffffff166000809054906101000a900473ffffffffffffffffffffffffffffffffffffffff1673ffffffffffffffffffffffffffffffffffffffff16141515610d7357600080fd5b826004819055508160059080519060200190610d90929190611b25565b508060069080519060200190610da7929190611b25565b507f9f25dab9c8023393aa820acad8a32eda06ddbc37c46b9830373a09be4d1aa2f56040518080602001828103825260138152602001807f537461727456617269616c626573207365742e0000000000000000000000000081525060200191505060405180910390a1505050565b60045481565b60011515600260019054906101000a900460ff161515141515610e3d57600080fd5b3373ffffffffffffffffffffffffffffffffffffffff166000809054906101000a900473ffffffffffffffffffffffffffffffffffffffff1673ffffffffffffffffffffffffffffffffffffffff16141515610e9857600080fd5b8b6007819055508a60089080519060200190610eb5929190611b25565b508960099080519060200190610ecc929190611b25565b5088600a9080519060200190610ee3929190611b25565b5087600b9080519060200190610efa929190611b25565b5086600c9080519060200190610f11929190611b25565b5085600d8190555084600e60006101000a81548160ff02191690831515021790555083600e60016101000a81548160ff02191690831515021790555082600f819055508160109080519060200190610f6a929190611b25565b508060119080519060200190610f81929190611b25565b507f095df4d014654f5f8d5d461580a425dac9088e9ed88c95937b392ca8ba2849906040518080602001828103825260118152602001807f456e645661726961626c6573207365742e00000000000000000000000000000081525060200191505060405180910390a1505050505050505050505050565b60075481565b60108054600181600116156101000203166002900480601f0160208091040260200160405190810160405280929190818152602001828054600181600116156101000203166002900480156110945780601f1061106957610100808354040283529160200191611094565b820191906000526020600020905b81548152906001019060200180831161107757829003601f168201915b505050505081565b600a8054600181600116156101000203166002900480601f0160208091040260200160405190810160405280929190818152602001828054600181600116156101000203166002900480156111325780601f1061110757610100808354040283529160200191611132565b820191906000526020600020905b81548152906001019060200180831161111557829003601f168201915b505050505081565b600b8054600181600116156101000203166002900480601f0160208091040260200160405190810160405280929190818152602001828054600181600116156101000203166002900480156111d05780601f106111a5576101008083540402835291602001916111d0565b820191906000526020600020905b8154815290600101906020018083116111b357829003601f168201915b505050505081565b60058054600181600116156101000203166002900480601f01602080910402602001604051908101604052809291908181526020018280546001816001161561010002031660029004801561126e5780601f106112435761010080835404028352916020019161126e565b820191906000526020600020905b81548152906001019060200180831161125157829003601f168201915b505050505081565b60015481565b60038181548110151561128b57fe5b906000526020600020016000915054906101000a900473ffffffffffffffffffffffffffffffffffffffff1681565b600e60009054906101000a900460ff1681565b600e60019054906101000a900460ff1681565b60068054600181600116156101000203166002900480601f0160208091040260200160405190810160405280929190818152602001828054600181600116156101000203166002900480156113765780601f1061134b57610100808354040283529160200191611376565b820191906000526020600020905b81548152906001019060200180831161135957829003601f168201915b505050505081565b60098054600181600116156101000203166002900480601f0160208091040260200160405190810160405280929190818152602001828054600181600116156101000203166002900480156114145780601f106113e957610100808354040283529160200191611414565b820191906000526020600020905b8154815290600101906020018083116113f757829003601f168201915b505050505081565b600260039054906101000a900473ffffffffffffffffffffffffffffffffffffffff1681565b600c8054600181600116156101000203166002900480601f0160208091040260200160405190810160405280929190818152602001828054600181600116156101000203166002900480156114d85780601f106114ad576101008083540402835291602001916114d8565b820191906000526020600020905b8154815290600101906020018083116114bb57829003601f168201915b505050505081565b600d5481565b60088054600181600116156101000203166002900480601f01602080910402602001604051908101604052809291908181526020018280546001816001161561010002031660029004801561157c5780601f106115515761010080835404028352916020019161157c565b820191906000526020600020905b81548152906001019060200180831161155f57829003601f168201915b505050505081565b60011515600260019054906101000a900460ff1615151415156115a657600080fd5b3373ffffffffffffffffffffffffffffffffffffffff166000809054906101000a900473ffffffffffffffffffffffffffffffffffffffff1673ffffffffffffffffffffffffffffffffffffffff1614151561160157600080fd5b80600260039054906101000a900473ffffffffffffffffffffffffffffffffffffffff1673ffffffffffffffffffffffffffffffffffffffff1663a2ab2c8c6040518163ffffffff167c0100000000000000000000000000000000000000000000000000000000028152600401602060405180830381600087803b15801561168857600080fd5b505af115801561169c573d6000803e3d6000fd5b505050506040513d60208110156116b257600080fd5b810190808051906020019092919050505060001916816040518082805190602001908083835b6020831015156116fd57805182526020820191506020810190506020830392506116d8565b6001836020036101000a03801982511681845116808217855250505050505090500191505060405180910390206000191614151561173a57600080fd5b6000600260016101000a81548160ff021916908315150217905550600260039054906101000a900473ffffffffffffffffffffffffffffffffffffffff1673ffffffffffffffffffffffffffffffffffffffff1663172847b583306040518363ffffffff167c010000000000000000000000000000000000000000000000000000000002815260040180806020018373ffffffffffffffffffffffffffffffffffffffff1673ffffffffffffffffffffffffffffffffffffffff168152602001828103825284818151815260200191508051906020019080838360005b83811015611832578082015181840152602081019050611817565b50505050905090810190601f16801561185f5780820380516001836020036101000a031916815260200191505b509350505050600060405180830381600087803b15801561187f57600080fd5b505af1158015611893573d6000803e3d6000fd5b505050503373ffffffffffffffffffffffffffffffffffffffff167fc952b93c48fdd136bb09432bd213d57ca429753ac2d0c2a23bb59b129b82e59c60405160405180910390a25050565b60011515600260019054906101000a900460ff16151514151561190057600080fd5b6002600481111561190d57fe5b8173ffffffffffffffffffffffffffffffffffffffff1663ccccac1f6040518163ffffffff167c0100000000000000000000000000000000000000000000000000000000028152600401602060405180830381600087803b15801561197157600080fd5b505af1158015611985573d6000803e3d6000fd5b505050506040513d602081101561199b57600080fd5b810190808051906020019092919050505060048111156119b757fe5b1415156119c357600080fd5b60038190806001815401808255809150509060018203906000526020600020016000909192909190916101000a81548173ffffffffffffffffffffffffffffffffffffffff021916908373ffffffffffffffffffffffffffffffffffffffff160217905550508073ffffffffffffffffffffffffffffffffffffffff167f8c827d44998e5cd9c987031d46ff99b20fa81adeb5ab66bde0c742056c4c366f60405160405180910390a250565b6002809054906101000a900460ff1681565b60118054600181600116156101000203166002900480601f016020809104026020016040519081016040528092919081815260200182805460018160011615610100020316600290048015611b175780601f10611aec57610100808354040283529160200191611b17565b820191906000526020600020905b815481529060010190602001808311611afa57829003601f168201915b505050505081565b600f5481565b828054600181600116156101000203166002900490600052602060002090601f016020900481019282601f10611b6657805160ff1916838001178555611b94565b82800160010185558215611b94579182015b82811115611b93578251825591602001919060010190611b78565b5b509050611ba19190611ba5565b5090565b611bc791905b80821115611bc3576000816000905550600101611bab565b5090565b905600a165627a7a7230582027c55d933b22bc872fe114fcb302496fd20609f2e83137893c9fd4eec5d386ef0029",
  "source": "pragma solidity ^0.4.23;\r\n\r\nimport \"./Libraries.sol\";\r\nimport \"./BaseContracts.sol\";\r\nimport \"./Profile.sol\";\r\nimport \"./Stages.sol\";\r\n\r\ncontract Record is BaseContract, Confirmable {\r\n    UtilLib.class public classtype = UtilLib.class.Record;\r\n\r\n    address public profile;\r\n    address[] public stages;\r\n\r\n    //Vao vien:\r\n    uint public start_date;\r\n    string public original_entry; //Vao vien o : Cap cuu/ Khoa kham benh/ khao dieu tri\r\n    string public previous_medical_unit; //Noi kham truoc: hospital / tu den / other\r\n    //Ra vien:\r\n    uint public end_date;\r\n    string public end_reason; //Li do ra vien: Ra vien/ Xin ve/ Bo ve/ Dua ve/ Chuyen vien\r\n    string public end_health_status; //Tinh trang ra vien: Khoi/Do/Nang hon/Khong thay doi/Tu vong\r\n    string public main_found_disease; // Benh chinh\r\n    string public relating_found_disease; // Benh kem theo\r\n    string public next_medical_unit; //Noi chuyen den tiep theo\r\n    uint public to_next_medical_unit_date; //Thoi gian chuyen den vien tiep theo\r\n    bool public is_catastrophe; //Co tai bien ko\r\n    bool public is_side_effect; //Co bien chung ko\r\n    uint public dead_time; //Thoi gian tu vong\r\n    string public dead_reason; //Li do tu vong : Do benh/ Do tai bien dieu tri/ Khac\r\n    string public dead_detailed_reason; //Nguyen nhan chi tiet dan den tu vong    \r\n\r\n\r\n    event StageAdded(address indexed stage);\r\n    event Confirm(address indexed _addr);\r\n    event StartVariablesSet(string _status);\r\n    event EndVariablesSet(string _status);\r\n\r\n    modifier authenicated(string _priv_key) {\r\n        require(keccak256(_priv_key) == Profile(profile).hashed_key());\r\n        _;\r\n    }\r\n\r\n    constructor(address _addr) BaseContract() public {\r\n        require(Profile(_addr).classtype() == UtilLib.class.Profile);\r\n        profile = _addr;\r\n        emit ContractCreated(msg.sender);\r\n    }\r\n\r\n    function addStage(address _addr) public changable {\r\n        require(Stage(_addr).classtype() == UtilLib.class.Stage);\r\n        stages.push(_addr);\r\n        emit StageAdded(_addr);\r\n    }\r\n\r\n    function confirm(string _priv_key) public changable iscreator authenicated(_priv_key) {\r\n        data_changable = false;\r\n        Profile(profile).addRecord(_priv_key, address(this));\r\n        emit Confirm(msg.sender);\r\n    }\r\n\r\n    function setStartVariables(uint _start_date, string _original_entry, string _previous_medical_unit ) public changable iscreator {\r\n        start_date = _start_date;\r\n        original_entry = _original_entry;\r\n        previous_medical_unit = _previous_medical_unit; \r\n        emit StartVariablesSet(\"StartVarialbes set.\");\r\n    }\r\n\r\n    function setEndVariables(\r\n        uint _end_date,string _end_reason,string _end_health_status,\r\n        string _main_found_disease,string _relating_found_disease,string _next_medical_unit,\r\n        uint _to_next_medical_unit_date,bool _is_catastrophe,bool _is_side_effect,\r\n        uint _dead_time,string _dead_reason,string _dead_detailed_reason ) public changable iscreator {\r\n\r\n        end_date = _end_date;\r\n        end_reason = _end_reason; \r\n        end_health_status = _end_health_status; \r\n        main_found_disease = _main_found_disease; \r\n        relating_found_disease = _relating_found_disease; \r\n        next_medical_unit = _next_medical_unit;\r\n        to_next_medical_unit_date = _to_next_medical_unit_date; \r\n        is_catastrophe = _is_catastrophe; \r\n        is_side_effect = _is_side_effect; \r\n        dead_time = _dead_time;\r\n        dead_reason = _dead_reason;\r\n        dead_detailed_reason = _dead_detailed_reason;\r\n        emit EndVariablesSet(\"EndVariables set.\");\r\n    }\r\n}",
  "sourcePath": "C:\\Users\\TuanNH\\Desktop\\eth_prj\\eth_contracts\\contracts\\Record.sol",
  "compiler": {
    "name": "solc",
    "version": "0.4.24+commit.e67f0147.Emscripten.clang"
  },
  "schemaVersion": "2.0.1",
  "updatedAt": "2018-07-20T21:34:40.877Z"
}