{
  "contractName": "Profile",
  "abi": [
    {
      "constant": true,
      "inputs": [],
      "name": "creator",
      "outputs": [
        {
          "name": "",
          "type": "address"
        }
      ],
      "payable": false,
      "stateMutability": "view",
      "type": "function"
    },
    {
      "constant": true,
      "inputs": [],
      "name": "is_foreigner",
      "outputs": [
        {
          "name": "",
          "type": "bool"
        }
      ],
      "payable": false,
      "stateMutability": "view",
      "type": "function"
    },
    {
      "constant": true,
      "inputs": [],
      "name": "dob",
      "outputs": [
        {
          "name": "",
          "type": "uint256"
        }
      ],
      "payable": false,
      "stateMutability": "view",
      "type": "function"
    },
    {
      "constant": true,
      "inputs": [],
      "name": "is_health_assuarance",
      "outputs": [
        {
          "name": "",
          "type": "bool"
        }
      ],
      "payable": false,
      "stateMutability": "view",
      "type": "function"
    },
    {
      "constant": true,
      "inputs": [],
      "name": "contact",
      "outputs": [
        {
          "name": "",
          "type": "string"
        }
      ],
      "payable": false,
      "stateMutability": "view",
      "type": "function"
    },
    {
      "constant": true,
      "inputs": [
        {
          "name": "",
          "type": "uint256"
        }
      ],
      "name": "records",
      "outputs": [
        {
          "name": "",
          "type": "address"
        }
      ],
      "payable": false,
      "stateMutability": "view",
      "type": "function"
    },
    {
      "constant": true,
      "inputs": [],
      "name": "home_address",
      "outputs": [
        {
          "name": "",
          "type": "string"
        }
      ],
      "payable": false,
      "stateMutability": "view",
      "type": "function"
    },
    {
      "constant": true,
      "inputs": [],
      "name": "region",
      "outputs": [
        {
          "name": "",
          "type": "string"
        }
      ],
      "payable": false,
      "stateMutability": "view",
      "type": "function"
    },
    {
      "constant": true,
      "inputs": [],
      "name": "time_created",
      "outputs": [
        {
          "name": "",
          "type": "uint256"
        }
      ],
      "payable": false,
      "stateMutability": "view",
      "type": "function"
    },
    {
      "constant": true,
      "inputs": [],
      "name": "health_assuarance_expired_date",
      "outputs": [
        {
          "name": "",
          "type": "uint256"
        }
      ],
      "payable": false,
      "stateMutability": "view",
      "type": "function"
    },
    {
      "constant": true,
      "inputs": [],
      "name": "occupation",
      "outputs": [
        {
          "name": "",
          "type": "string"
        }
      ],
      "payable": false,
      "stateMutability": "view",
      "type": "function"
    },
    {
      "constant": true,
      "inputs": [],
      "name": "full_name",
      "outputs": [
        {
          "name": "",
          "type": "string"
        }
      ],
      "payable": false,
      "stateMutability": "view",
      "type": "function"
    },
    {
      "constant": true,
      "inputs": [],
      "name": "gender",
      "outputs": [
        {
          "name": "",
          "type": "bool"
        }
      ],
      "payable": false,
      "stateMutability": "view",
      "type": "function"
    },
    {
      "constant": true,
      "inputs": [],
      "name": "health_assuarance_id",
      "outputs": [
        {
          "name": "",
          "type": "string"
        }
      ],
      "payable": false,
      "stateMutability": "view",
      "type": "function"
    },
    {
      "constant": true,
      "inputs": [],
      "name": "hashed_key",
      "outputs": [
        {
          "name": "",
          "type": "bytes32"
        }
      ],
      "payable": false,
      "stateMutability": "view",
      "type": "function"
    },
    {
      "constant": true,
      "inputs": [],
      "name": "classtype",
      "outputs": [
        {
          "name": "",
          "type": "uint8"
        }
      ],
      "payable": false,
      "stateMutability": "view",
      "type": "function"
    },
    {
      "constant": true,
      "inputs": [],
      "name": "education_level",
      "outputs": [
        {
          "name": "",
          "type": "string"
        }
      ],
      "payable": false,
      "stateMutability": "view",
      "type": "function"
    },
    {
      "inputs": [
        {
          "name": "_priv_key",
          "type": "string"
        }
      ],
      "payable": false,
      "stateMutability": "nonpayable",
      "type": "constructor"
    },
    {
      "anonymous": false,
      "inputs": [
        {
          "indexed": true,
          "name": "record",
          "type": "address"
        }
      ],
      "name": "RecordAdded",
      "type": "event"
    },
    {
      "anonymous": false,
      "inputs": [
        {
          "indexed": false,
          "name": "_status",
          "type": "string"
        }
      ],
      "name": "VariablesSet",
      "type": "event"
    },
    {
      "anonymous": false,
      "inputs": [
        {
          "indexed": true,
          "name": "creator",
          "type": "address"
        }
      ],
      "name": "ContractCreated",
      "type": "event"
    },
    {
      "constant": false,
      "inputs": [
        {
          "name": "_priv_key",
          "type": "string"
        },
        {
          "name": "_addr",
          "type": "address"
        }
      ],
      "name": "addRecord",
      "outputs": [],
      "payable": false,
      "stateMutability": "nonpayable",
      "type": "function"
    },
    {
      "constant": false,
      "inputs": [
        {
          "name": "_priv_key",
          "type": "string"
        },
        {
          "name": "_full_name",
          "type": "string"
        },
        {
          "name": "_gender",
          "type": "bool"
        },
        {
          "name": "_dob",
          "type": "uint256"
        },
        {
          "name": "_occupation",
          "type": "string"
        },
        {
          "name": "_region",
          "type": "string"
        },
        {
          "name": "_education_level",
          "type": "string"
        },
        {
          "name": "_is_foreigner",
          "type": "bool"
        },
        {
          "name": "_home_address",
          "type": "string"
        },
        {
          "name": "_is_health_assuarance",
          "type": "bool"
        },
        {
          "name": "_health_assuarance_expired_date",
          "type": "uint256"
        },
        {
          "name": "_health_assuarance_id",
          "type": "string"
        },
        {
          "name": "_contact",
          "type": "string"
        }
      ],
      "name": "setVariables",
      "outputs": [],
      "payable": false,
      "stateMutability": "nonpayable",
      "type": "function"
    }
  ],
  "bytecode": "0x60806040526000600260016101000a81548160ff0219169083600481111561002357fe5b021790555034801561003457600080fd5b5060405161157238038061157283398101806040528101908080518201929190505050336000806101000a81548173ffffffffffffffffffffffffffffffffffffffff021916908373ffffffffffffffffffffffffffffffffffffffff16021790555042600181905550806040518082805190602001908083835b6020831015156100d457805182526020820191506020810190506020830392506100af565b6001836020036101000a0380198251168184511680821785525050505050509050019150506040518091039020600381600019169055503373ffffffffffffffffffffffffffffffffffffffff167fcf78cf0d6f3d8371e1075c69c492ab4ec5d8cf23a1a239b6a51a1d00be7ca31260405160405180910390a2506114148061015e6000396000f300608060405260043610610107576000357c0100000000000000000000000000000000000000000000000000000000900463ffffffff16806302d05d3f1461010c5780630338e85614610163578063166b005314610192578063172847b5146101bd5780631d4feca41461024657806333a8c45a14610275578063344610671461030557806343f2e25c146103725780634415b3f7146104025780635062d68d1461068d578063639d7a071461071d5780636f40788c146107485780636f5ad99914610773578063743448841461080357806379caad86146108935780639c55368f146108c2578063a2ab2c8c14610952578063ccccac1f14610985578063e870a311146109be575b600080fd5b34801561011857600080fd5b50610121610a4e565b604051808273ffffffffffffffffffffffffffffffffffffffff1673ffffffffffffffffffffffffffffffffffffffff16815260200191505060405180910390f35b34801561016f57600080fd5b50610178610a73565b604051808215151515815260200191505060405180910390f35b34801561019e57600080fd5b506101a7610a86565b6040518082815260200191505060405180910390f35b3480156101c957600080fd5b50610244600480360381019080803590602001908201803590602001908080601f0160208091040260200160405190810160405280939291908181526020018383808284378201915050505050509192919290803573ffffffffffffffffffffffffffffffffffffffff169060200190929190505050610a8c565b005b34801561025257600080fd5b5061025b610c78565b604051808215151515815260200191505060405180910390f35b34801561028157600080fd5b5061028a610c8b565b6040518080602001828103825283818151815260200191508051906020019080838360005b838110156102ca5780820151818401526020810190506102af565b50505050905090810190601f1680156102f75780820380516001836020036101000a031916815260200191505b509250505060405180910390f35b34801561031157600080fd5b5061033060048036038101908080359060200190929190505050610d29565b604051808273ffffffffffffffffffffffffffffffffffffffff1673ffffffffffffffffffffffffffffffffffffffff16815260200191505060405180910390f35b34801561037e57600080fd5b50610387610d67565b6040518080602001828103825283818151815260200191508051906020019080838360005b838110156103c75780820151818401526020810190506103ac565b50505050905090810190601f1680156103f45780820380516001836020036101000a031916815260200191505b509250505060405180910390f35b34801561040e57600080fd5b5061068b600480360381019080803590602001908201803590602001908080601f0160208091040260200160405190810160405280939291908181526020018383808284378201915050505050509192919290803590602001908201803590602001908080601f016020809104026020016040519081016040528093929190818152602001838380828437820191505050505050919291929080351515906020019092919080359060200190929190803590602001908201803590602001908080601f0160208091040260200160405190810160405280939291908181526020018383808284378201915050505050509192919290803590602001908201803590602001908080601f0160208091040260200160405190810160405280939291908181526020018383808284378201915050505050509192919290803590602001908201803590602001908080601f0160208091040260200160405190810160405280939291908181526020018383808284378201915050505050509192919290803515159060200190929190803590602001908201803590602001908080601f016020809104026020016040519081016040528093929190818152602001838380828437820191505050505050919291929080351515906020019092919080359060200190929190803590602001908201803590602001908080601f0160208091040260200160405190810160405280939291908181526020018383808284378201915050505050509192919290803590602001908201803590602001908080601f0160208091040260200160405190810160405280939291908181526020018383808284378201915050505050509192919290505050610e05565b005b34801561069957600080fd5b506106a2610ff5565b6040518080602001828103825283818151815260200191508051906020019080838360005b838110156106e25780820151818401526020810190506106c7565b50505050905090810190601f16801561070f5780820380516001836020036101000a031916815260200191505b509250505060405180910390f35b34801561072957600080fd5b50610732611093565b6040518082815260200191505060405180910390f35b34801561075457600080fd5b5061075d611099565b6040518082815260200191505060405180910390f35b34801561077f57600080fd5b5061078861109f565b6040518080602001828103825283818151815260200191508051906020019080838360005b838110156107c85780820151818401526020810190506107ad565b50505050905090810190601f1680156107f55780820380516001836020036101000a031916815260200191505b509250505060405180910390f35b34801561080f57600080fd5b5061081861113d565b6040518080602001828103825283818151815260200191508051906020019080838360005b8381101561085857808201518184015260208101905061083d565b50505050905090810190601f1680156108855780820380516001836020036101000a031916815260200191505b509250505060405180910390f35b34801561089f57600080fd5b506108a86111db565b604051808215151515815260200191505060405180910390f35b3480156108ce57600080fd5b506108d76111ee565b6040518080602001828103825283818151815260200191508051906020019080838360005b838110156109175780820151818401526020810190506108fc565b50505050905090810190601f1680156109445780820380516001836020036101000a031916815260200191505b509250505060405180910390f35b34801561095e57600080fd5b5061096761128c565b60405180826000191660001916815260200191505060405180910390f35b34801561099157600080fd5b5061099a611292565b604051808260048111156109aa57fe5b60ff16815260200191505060405180910390f35b3480156109ca57600080fd5b506109d36112a5565b6040518080602001828103825283818151815260200191508051906020019080838360005b83811015610a135780820151818401526020810190506109f8565b50505050905090810190601f168015610a405780820380516001836020036101000a031916815260200191505b509250505060405180910390f35b6000809054906101000a900473ffffffffffffffffffffffffffffffffffffffff1681565b600b60009054906101000a900460ff1681565b60075481565b8160035460001916816040518082805190602001908083835b602083101515610aca5780518252602082019150602081019050602083039250610aa5565b6001836020036101000a038019825116818451168082178552505050505050905001915050604051809103902060001916141515610b0757600080fd5b60016004811115610b1457fe5b8273ffffffffffffffffffffffffffffffffffffffff1663ccccac1f6040518163ffffffff167c0100000000000000000000000000000000000000000000000000000000028152600401602060405180830381600087803b158015610b7857600080fd5b505af1158015610b8c573d6000803e3d6000fd5b505050506040513d6020811015610ba257600080fd5b81019080805190602001909291905050506004811115610bbe57fe5b141515610bca57600080fd5b60048290806001815401808255809150509060018203906000526020600020016000909192909190916101000a81548173ffffffffffffffffffffffffffffffffffffffff021916908373ffffffffffffffffffffffffffffffffffffffff160217905550508173ffffffffffffffffffffffffffffffffffffffff167f39f6893e048738d9e8daf32db14d0e9dabe07a50362174accf031034b1aa9aef60405160405180910390a2505050565b600d60009054906101000a900460ff1681565b60108054600181600116156101000203166002900480601f016020809104026020016040519081016040528092919081815260200182805460018160011615610100020316600290048015610d215780601f10610cf657610100808354040283529160200191610d21565b820191906000526020600020905b815481529060010190602001808311610d0457829003601f168201915b505050505081565b600481815481101515610d3857fe5b906000526020600020016000915054906101000a900473ffffffffffffffffffffffffffffffffffffffff1681565b600c8054600181600116156101000203166002900480601f016020809104026020016040519081016040528092919081815260200182805460018160011615610100020316600290048015610dfd5780601f10610dd257610100808354040283529160200191610dfd565b820191906000526020600020905b815481529060010190602001808311610de057829003601f168201915b505050505081565b8c60035460001916816040518082805190602001908083835b602083101515610e435780518252602082019150602081019050602083039250610e1e565b6001836020036101000a038019825116818451168082178552505050505050905001915050604051809103902060001916141515610e8057600080fd5b8c60059080519060200190610e96929190611343565b508b600660006101000a81548160ff0219169083151502179055508a6007819055508960089080519060200190610ece929190611343565b508860099080519060200190610ee5929190611343565b5087600a9080519060200190610efc929190611343565b5086600b60006101000a81548160ff02191690831515021790555085600c9080519060200190610f2d929190611343565b5084600d60006101000a81548160ff02191690831515021790555083600e8190555082600f9080519060200190610f65929190611343565b508160109080519060200190610f7c929190611343565b507f9002e4a71fbbe29643d7a8e4f86f2387ffa84a299eb23e52731a5cfe1117f09660405180806020018281038252600e8152602001807f56617269616c626573207365742e00000000000000000000000000000000000081525060200191505060405180910390a15050505050505050505050505050565b60098054600181600116156101000203166002900480601f01602080910402602001604051908101604052809291908181526020018280546001816001161561010002031660029004801561108b5780601f106110605761010080835404028352916020019161108b565b820191906000526020600020905b81548152906001019060200180831161106e57829003601f168201915b505050505081565b60015481565b600e5481565b60088054600181600116156101000203166002900480601f0160208091040260200160405190810160405280929190818152602001828054600181600116156101000203166002900480156111355780601f1061110a57610100808354040283529160200191611135565b820191906000526020600020905b81548152906001019060200180831161111857829003601f168201915b505050505081565b60058054600181600116156101000203166002900480601f0160208091040260200160405190810160405280929190818152602001828054600181600116156101000203166002900480156111d35780601f106111a8576101008083540402835291602001916111d3565b820191906000526020600020905b8154815290600101906020018083116111b657829003601f168201915b505050505081565b600660009054906101000a900460ff1681565b600f8054600181600116156101000203166002900480601f0160208091040260200160405190810160405280929190818152602001828054600181600116156101000203166002900480156112845780601f1061125957610100808354040283529160200191611284565b820191906000526020600020905b81548152906001019060200180831161126757829003601f168201915b505050505081565b60035481565b600260019054906101000a900460ff1681565b600a8054600181600116156101000203166002900480601f01602080910402602001604051908101604052809291908181526020018280546001816001161561010002031660029004801561133b5780601f106113105761010080835404028352916020019161133b565b820191906000526020600020905b81548152906001019060200180831161131e57829003601f168201915b505050505081565b828054600181600116156101000203166002900490600052602060002090601f016020900481019282601f1061138457805160ff19168380011785556113b2565b828001600101855582156113b2579182015b828111156113b1578251825591602001919060010190611396565b5b5090506113bf91906113c3565b5090565b6113e591905b808211156113e15760008160009055506001016113c9565b5090565b905600a165627a7a72305820a35e5114fc1c6f359ce4d5f16740938eca8b8b69eeb1f51ef223e81750ed09900029",
  "source": "pragma solidity ^0.4.23;\r\n\r\nimport \"./Libraries.sol\";\r\nimport \"./BaseContracts.sol\";\r\nimport \"./Record.sol\";\r\n\r\ncontract Profile is BaseContract {\r\n    UtilLib.class public classtype = UtilLib.class.Profile;\r\n\r\n    bytes32 public hashed_key;\r\n    address[] public records;\r\n\r\n    string public full_name;\r\n    bool public gender;\r\n    uint public dob;\r\n    string public occupation;\r\n    string public region;\r\n    string public education_level;\r\n    bool public is_foreigner;\r\n    string public home_address;\r\n    bool public is_health_assuarance;\r\n    uint public health_assuarance_expired_date;\r\n    string public health_assuarance_id;\r\n    string public contact;\r\n\r\n\r\n    event RecordAdded(address indexed record);\r\n    event VariablesSet(string _status);\r\n\r\n    modifier authenicated(string _priv_key) {\r\n        require(keccak256(_priv_key) == hashed_key);\r\n        _;\r\n    }\r\n\r\n    constructor(string _priv_key) BaseContract() public {\r\n        hashed_key = keccak256(_priv_key);\r\n        emit ContractCreated(msg.sender);\r\n    }\r\n\r\n    function addRecord(string _priv_key, address _addr) public authenicated(_priv_key) {\r\n        require(Record(_addr).classtype() == UtilLib.class.Record);\r\n        records.push(_addr);\r\n        emit RecordAdded(_addr);\r\n    }\r\n\r\n    function setVariables(\r\n        string _priv_key,\r\n        string _full_name,\r\n        bool _gender,\r\n        uint _dob,\r\n        string _occupation,\r\n        string _region,\r\n        string _education_level,\r\n        bool _is_foreigner,\r\n        string _home_address,\r\n        bool _is_health_assuarance,\r\n        uint _health_assuarance_expired_date,\r\n        string _health_assuarance_id,\r\n        string _contact  ) public authenicated(_priv_key) {\r\n\r\n        full_name = _full_name;\r\n        gender = _gender;\r\n        dob = _dob;\r\n        occupation = _occupation;\r\n        region = _region;\r\n        education_level = _education_level;\r\n        is_foreigner = _is_foreigner;\r\n        home_address = _home_address;\r\n        is_health_assuarance = _is_health_assuarance;\r\n        health_assuarance_expired_date = _health_assuarance_expired_date;\r\n        health_assuarance_id = _health_assuarance_id;\r\n        contact = _contact;\r\n        \r\n        emit VariablesSet(\"Varialbes set.\");\r\n    }\r\n}",
  "sourcePath": "C:\\Users\\TuanNH\\Desktop\\eth_prj\\eth_contracts\\contracts\\Profile.sol",
  "compiler": {
    "name": "solc",
    "version": "0.4.24+commit.e67f0147.Emscripten.clang"
  },
  "schemaVersion": "2.0.1",
  "updatedAt": "2018-07-20T21:34:40.876Z"
}