{
  "contractName": "TestStage",
  "abi": [
    {
      "constant": true,
      "inputs": [],
      "name": "creator",
      "outputs": [
        {
          "name": "",
          "type": "address"
        }
      ],
      "payable": false,
      "stateMutability": "view",
      "type": "function"
    },
    {
      "constant": true,
      "inputs": [],
      "name": "data_changable",
      "outputs": [
        {
          "name": "",
          "type": "bool"
        }
      ],
      "payable": false,
      "stateMutability": "view",
      "type": "function"
    },
    {
      "constant": true,
      "inputs": [],
      "name": "record",
      "outputs": [
        {
          "name": "",
          "type": "address"
        }
      ],
      "payable": false,
      "stateMutability": "view",
      "type": "function"
    },
    {
      "constant": true,
      "inputs": [],
      "name": "doctor_id",
      "outputs": [
        {
          "name": "",
          "type": "string"
        }
      ],
      "payable": false,
      "stateMutability": "view",
      "type": "function"
    },
    {
      "constant": true,
      "inputs": [],
      "name": "time_created",
      "outputs": [
        {
          "name": "",
          "type": "uint256"
        }
      ],
      "payable": false,
      "stateMutability": "view",
      "type": "function"
    },
    {
      "constant": false,
      "inputs": [],
      "name": "confirm",
      "outputs": [],
      "payable": false,
      "stateMutability": "nonpayable",
      "type": "function"
    },
    {
      "constant": true,
      "inputs": [],
      "name": "department",
      "outputs": [
        {
          "name": "",
          "type": "uint8"
        }
      ],
      "payable": false,
      "stateMutability": "view",
      "type": "function"
    },
    {
      "constant": true,
      "inputs": [],
      "name": "classtype",
      "outputs": [
        {
          "name": "",
          "type": "uint8"
        }
      ],
      "payable": false,
      "stateMutability": "view",
      "type": "function"
    },
    {
      "constant": true,
      "inputs": [],
      "name": "stagetype",
      "outputs": [
        {
          "name": "",
          "type": "uint8"
        }
      ],
      "payable": false,
      "stateMutability": "view",
      "type": "function"
    },
    {
      "constant": true,
      "inputs": [
        {
          "name": "",
          "type": "uint256"
        }
      ],
      "name": "files",
      "outputs": [
        {
          "name": "",
          "type": "address"
        }
      ],
      "payable": false,
      "stateMutability": "view",
      "type": "function"
    },
    {
      "constant": false,
      "inputs": [
        {
          "name": "_doctor_id",
          "type": "string"
        }
      ],
      "name": "setVariables",
      "outputs": [],
      "payable": false,
      "stateMutability": "nonpayable",
      "type": "function"
    },
    {
      "inputs": [
        {
          "name": "_addr",
          "type": "address"
        },
        {
          "name": "_department",
          "type": "uint256"
        }
      ],
      "payable": false,
      "stateMutability": "nonpayable",
      "type": "constructor"
    },
    {
      "anonymous": false,
      "inputs": [
        {
          "indexed": true,
          "name": "file",
          "type": "address"
        }
      ],
      "name": "FileAdded",
      "type": "event"
    },
    {
      "anonymous": false,
      "inputs": [
        {
          "indexed": true,
          "name": "_addr",
          "type": "address"
        }
      ],
      "name": "Confirm",
      "type": "event"
    },
    {
      "anonymous": false,
      "inputs": [
        {
          "indexed": false,
          "name": "_status",
          "type": "string"
        }
      ],
      "name": "VariablesSet",
      "type": "event"
    },
    {
      "anonymous": false,
      "inputs": [
        {
          "indexed": true,
          "name": "creator",
          "type": "address"
        }
      ],
      "name": "ContractCreated",
      "type": "event"
    },
    {
      "constant": false,
      "inputs": [
        {
          "name": "_addr",
          "type": "address"
        }
      ],
      "name": "pushFile",
      "outputs": [],
      "payable": false,
      "stateMutability": "nonpayable",
      "type": "function"
    }
  ],
  "bytecode": "0x60806040526001600260016101000a81548160ff02191690831515021790555060028060026101000a81548160ff0219169083600481111561003d57fe5b02179055506000600460006101000a81548160ff0219169083600281111561006157fe5b021790555034801561007257600080fd5b50604051604080610d8883398101806040528101908080519060200190929190805190602001909291905050508181336000806101000a81548173ffffffffffffffffffffffffffffffffffffffff021916908373ffffffffffffffffffffffffffffffffffffffff16021790555042600181905550600160048111156100f557fe5b8273ffffffffffffffffffffffffffffffffffffffff1663ccccac1f6040518163ffffffff167c0100000000000000000000000000000000000000000000000000000000028152600401602060405180830381600087803b15801561015957600080fd5b505af115801561016d573d6000803e3d6000fd5b505050506040513d602081101561018357600080fd5b8101908080519060200190929190505050600481111561019f57fe5b1415156101ab57600080fd5b81600260046101000a81548173ffffffffffffffffffffffffffffffffffffffff021916908373ffffffffffffffffffffffffffffffffffffffff16021790555080601a8111156101f857fe5b600260186101000a81548160ff0219169083601a81111561021557fe5b02179055503373ffffffffffffffffffffffffffffffffffffffff167fcf78cf0d6f3d8371e1075c69c492ab4ec5d8cf23a1a239b6a51a1d00be7ca31260405160405180910390a250505050610b18806102706000396000f3006080604052600436106100ba576000357c0100000000000000000000000000000000000000000000000000000000900463ffffffff16806302d05d3f146100bf57806307e033cd14610116578063266cf109146101455780634de188a71461019c578063639d7a071461022c5780637022b58e146102575780639173e2d61461026e5780639ca65163146102b1578063ccccac1f146102ea578063dd5ab87a14610323578063f4c714b41461035c578063ff99e64b146103c9575b600080fd5b3480156100cb57600080fd5b506100d4610432565b604051808273ffffffffffffffffffffffffffffffffffffffff1673ffffffffffffffffffffffffffffffffffffffff16815260200191505060405180910390f35b34801561012257600080fd5b5061012b610457565b604051808215151515815260200191505060405180910390f35b34801561015157600080fd5b5061015a61046a565b604051808273ffffffffffffffffffffffffffffffffffffffff1673ffffffffffffffffffffffffffffffffffffffff16815260200191505060405180910390f35b3480156101a857600080fd5b506101b1610490565b6040518080602001828103825283818151815260200191508051906020019080838360005b838110156101f15780820151818401526020810190506101d6565b50505050905090810190601f16801561021e5780820380516001836020036101000a031916815260200191505b509250505060405180910390f35b34801561023857600080fd5b5061024161052e565b6040518082815260200191505060405180910390f35b34801561026357600080fd5b5061026c610534565b005b34801561027a57600080fd5b506102af600480360381019080803573ffffffffffffffffffffffffffffffffffffffff1690602001909291905050506106e6565b005b3480156102bd57600080fd5b506102c66108d2565b6040518082601a8111156102d657fe5b60ff16815260200191505060405180910390f35b3480156102f657600080fd5b506102ff6108e5565b6040518082600481111561030f57fe5b60ff16815260200191505060405180910390f35b34801561032f57600080fd5b506103386108f7565b6040518082600281111561034857fe5b60ff16815260200191505060405180910390f35b34801561036857600080fd5b506103876004803603810190808035906020019092919050505061090a565b604051808273ffffffffffffffffffffffffffffffffffffffff1673ffffffffffffffffffffffffffffffffffffffff16815260200191505060405180910390f35b3480156103d557600080fd5b50610430600480360381019080803590602001908201803590602001908080601f0160208091040260200160405190810160405280939291908181526020018383808284378201915050505050509192919290505050610948565b005b6000809054906101000a900473ffffffffffffffffffffffffffffffffffffffff1681565b600260019054906101000a900460ff1681565b600260049054906101000a900473ffffffffffffffffffffffffffffffffffffffff1681565b60038054600181600116156101000203166002900480601f0160208091040260200160405190810160405280929190818152602001828054600181600116156101000203166002900480156105265780601f106104fb57610100808354040283529160200191610526565b820191906000526020600020905b81548152906001019060200180831161050957829003601f168201915b505050505081565b60015481565b60011515600260019054906101000a900460ff16151514151561055657600080fd5b3373ffffffffffffffffffffffffffffffffffffffff166000809054906101000a900473ffffffffffffffffffffffffffffffffffffffff1673ffffffffffffffffffffffffffffffffffffffff161415156105b157600080fd5b6000600260016101000a81548160ff021916908315150217905550600260049054906101000a900473ffffffffffffffffffffffffffffffffffffffff1673ffffffffffffffffffffffffffffffffffffffff1663c9663dc1306040518263ffffffff167c0100000000000000000000000000000000000000000000000000000000028152600401808273ffffffffffffffffffffffffffffffffffffffff1673ffffffffffffffffffffffffffffffffffffffff168152602001915050600060405180830381600087803b15801561068957600080fd5b505af115801561069d573d6000803e3d6000fd5b505050503373ffffffffffffffffffffffffffffffffffffffff167fc952b93c48fdd136bb09432bd213d57ca429753ac2d0c2a23bb59b129b82e59c60405160405180910390a2565b60011515600260019054906101000a900460ff16151514151561070857600080fd5b3373ffffffffffffffffffffffffffffffffffffffff166000809054906101000a900473ffffffffffffffffffffffffffffffffffffffff1673ffffffffffffffffffffffffffffffffffffffff1614151561076357600080fd5b6003600481111561077057fe5b8173ffffffffffffffffffffffffffffffffffffffff1663ccccac1f6040518163ffffffff167c0100000000000000000000000000000000000000000000000000000000028152600401602060405180830381600087803b1580156107d457600080fd5b505af11580156107e8573d6000803e3d6000fd5b505050506040513d60208110156107fe57600080fd5b8101908080519060200190929190505050600481111561081a57fe5b14151561082657600080fd5b60058190806001815401808255809150509060018203906000526020600020016000909192909190916101000a81548173ffffffffffffffffffffffffffffffffffffffff021916908373ffffffffffffffffffffffffffffffffffffffff160217905550508073ffffffffffffffffffffffffffffffffffffffff167f3723aa9f1b93cca057f414c9719f6372c791ac5dccbc99f705073424e653aa3b60405160405180910390a250565b600260189054906101000a900460ff1681565b6002809054906101000a900460ff1681565b600460009054906101000a900460ff1681565b60058181548110151561091957fe5b906000526020600020016000915054906101000a900473ffffffffffffffffffffffffffffffffffffffff1681565b60011515600260019054906101000a900460ff16151514151561096a57600080fd5b3373ffffffffffffffffffffffffffffffffffffffff166000809054906101000a900473ffffffffffffffffffffffffffffffffffffffff1673ffffffffffffffffffffffffffffffffffffffff161415156109c557600080fd5b80600390805190602001906109db929190610a47565b507f9002e4a71fbbe29643d7a8e4f86f2387ffa84a299eb23e52731a5cfe1117f09660405180806020018281038252600e8152602001807f446f63746f72206964207365742e00000000000000000000000000000000000081525060200191505060405180910390a150565b828054600181600116156101000203166002900490600052602060002090601f016020900481019282601f10610a8857805160ff1916838001178555610ab6565b82800160010185558215610ab6579182015b82811115610ab5578251825591602001919060010190610a9a565b5b509050610ac39190610ac7565b5090565b610ae991905b80821115610ae5576000816000905550600101610acd565b5090565b905600a165627a7a723058205640b77ad4e4448869d9aa239e96c4f62c24e80f8ebdb1e6a884da31a920e0fb0029",
  "source": "pragma solidity ^0.4.23;\r\n\r\nimport \"./Libraries.sol\";\r\nimport \"./BaseContracts.sol\";\r\nimport \"./Record.sol\";\r\nimport \"./TreatmentMethod.sol\";\r\nimport \"./File.sol\";\r\n\r\ncontract Stage is BaseContract, Confirmable {\r\n    UtilLib.class public classtype = UtilLib.class.Stage;\r\n    UtilLib.stage public stagetype;\r\n    address public record;\r\n    UtilLib.department public department;\r\n    string public doctor_id;\r\n\r\n    event Confirm(address indexed _addr);\r\n    event VariablesSet(string _status);\r\n\r\n    constructor(address _addr, uint _department) BaseContract() public { \r\n        require(Record(_addr).classtype() == UtilLib.class.Record);\r\n        record = _addr;\r\n        department = UtilLib.department(_department);\r\n        emit ContractCreated(msg.sender);\r\n    }\r\n\r\n    function setVariables(string _doctor_id) public changable iscreator {\r\n        doctor_id = _doctor_id;\r\n        emit VariablesSet(\"Doctor id set.\");\r\n    }\r\n\r\n    function confirm() public changable iscreator {\r\n        data_changable = false;\r\n        Record(record).addStage(address(this));\r\n        emit Confirm(msg.sender);\r\n    }\r\n}\r\n\r\ncontract TreatmentStage is Stage {\r\n    UtilLib.stage public stagetype = UtilLib.stage.TreatmentStage;\r\n\r\n    address[] public treatment_methods;\r\n\r\n    event TreatmentMethodAdded(address indexed addr);\r\n\r\n    constructor(address _addr, uint _department) Stage(_addr, _department) public {}\r\n\r\n    function addTreatmentMethod(address _addr) public changable iscreator {\r\n        require(TreatmentMethod(_addr).classtype() == UtilLib.class.TreatmentMethod);\r\n        treatment_methods.push(_addr);\r\n        emit TreatmentMethodAdded(_addr);\r\n    }\r\n}\r\n\r\ncontract DiagnoseStage is Stage {\r\n    UtilLib.stage public stagetype = UtilLib.stage.DiagnoseStage;\r\n\r\n    string[] public manifestation;\r\n    string public diagnose;\r\n\r\n    event ManifestationAdded(string _manifestation);\r\n    event DiagnoseSet(string _diagnose);\r\n\r\n    constructor(address _addr, uint _department) Stage(_addr, _department) public {}\r\n\r\n    function addManifestation(string _manifestation) public changable iscreator {\r\n        manifestation.push(_manifestation);\r\n        emit ManifestationAdded(_manifestation);\r\n    }\r\n\r\n    function setDiagnose(string _diagnose) public changable iscreator {\r\n        diagnose = _diagnose;\r\n        emit DiagnoseSet(_diagnose);\r\n    }\r\n}\r\n\r\ncontract TestStage is Stage {\r\n    UtilLib.stage public stagetype = UtilLib.stage.TestStage;\r\n\r\n    address[] public files;\r\n\r\n    event FileAdded(address indexed file);\r\n\r\n    constructor(address _addr, uint _department) Stage(_addr, _department) public {}\r\n\r\n    function pushFile(address _addr) public changable iscreator {\r\n        require(File(_addr).classtype() == UtilLib.class.File);\r\n        files.push(_addr);\r\n        emit FileAdded(_addr);\r\n    }\r\n}",
  "sourcePath": "C:\\Users\\TuanNH\\Desktop\\eth_prj\\eth_contracts\\contracts\\Stages.sol",
  "compiler": {
    "name": "solc",
    "version": "0.4.24+commit.e67f0147.Emscripten.clang"
  },
  "schemaVersion": "2.0.1",
  "updatedAt": "2018-07-20T21:34:40.880Z"
}