{
  "contractName": "BaseContract",
  "abi": [
    {
      "constant": true,
      "inputs": [],
      "name": "creator",
      "outputs": [
        {
          "name": "",
          "type": "address"
        }
      ],
      "payable": false,
      "stateMutability": "view",
      "type": "function"
    },
    {
      "constant": true,
      "inputs": [],
      "name": "time_created",
      "outputs": [
        {
          "name": "",
          "type": "uint256"
        }
      ],
      "payable": false,
      "stateMutability": "view",
      "type": "function"
    },
    {
      "constant": true,
      "inputs": [],
      "name": "classtype",
      "outputs": [
        {
          "name": "",
          "type": "uint8"
        }
      ],
      "payable": false,
      "stateMutability": "view",
      "type": "function"
    },
    {
      "inputs": [],
      "payable": false,
      "stateMutability": "nonpayable",
      "type": "constructor"
    },
    {
      "anonymous": false,
      "inputs": [
        {
          "indexed": true,
          "name": "creator",
          "type": "address"
        }
      ],
      "name": "ContractCreated",
      "type": "event"
    }
  ],
  "bytecode": "0x608060405234801561001057600080fd5b50336000806101000a81548173ffffffffffffffffffffffffffffffffffffffff021916908373ffffffffffffffffffffffffffffffffffffffff16021790555042600181905550610181806100676000396000f300608060405260043610610057576000357c0100000000000000000000000000000000000000000000000000000000900463ffffffff16806302d05d3f1461005c578063639d7a07146100b3578063ccccac1f146100de575b600080fd5b34801561006857600080fd5b50610071610117565b604051808273ffffffffffffffffffffffffffffffffffffffff1673ffffffffffffffffffffffffffffffffffffffff16815260200191505060405180910390f35b3480156100bf57600080fd5b506100c861013c565b6040518082815260200191505060405180910390f35b3480156100ea57600080fd5b506100f3610142565b6040518082600481111561010357fe5b60ff16815260200191505060405180910390f35b6000809054906101000a900473ffffffffffffffffffffffffffffffffffffffff1681565b60015481565b600260009054906101000a900460ff16815600a165627a7a72305820cad1a3cab49259a3b19746ebf00451cf7e1d457b5cd4cc722790adba320ce08e0029",
  "source": "pragma solidity ^0.4.23;\r\n\r\nimport \"./Libraries.sol\";\r\n\r\ncontract BaseContract {\r\n    address public creator;\r\n    uint public time_created;\r\n    UtilLib.class public classtype;\r\n\r\n    event ContractCreated(address indexed creator);\r\n\r\n    modifier iscreator() {\r\n        require(creator == msg.sender);\r\n        _;\r\n    }\r\n\r\n    constructor() public {\r\n        creator = msg.sender;\r\n        time_created = now;\r\n    }\r\n}\r\n\r\ncontract Confirmable {\r\n    bool public data_changable = true;\r\n\r\n    modifier changable() {\r\n        require(data_changable == true);\r\n        _;\r\n    }\r\n}",
  "sourcePath": "C:\\Users\\TuanNH\\Desktop\\eth_prj\\eth_contracts\\contracts\\BaseContracts.sol",
  "compiler": {
    "name": "solc",
    "version": "0.4.24+commit.e67f0147.Emscripten.clang"
  },
  "schemaVersion": "2.0.1",
  "updatedAt": "2018-07-20T17:50:53.864Z"
}