{
  "contractName": "Confirmable",
  "abi": [
    {
      "constant": true,
      "inputs": [],
      "name": "data_changable",
      "outputs": [
        {
          "name": "",
          "type": "bool"
        }
      ],
      "payable": false,
      "stateMutability": "view",
      "type": "function"
    }
  ],
  "bytecode": "0x608060405260016000806101000a81548160ff02191690831515021790555034801561002a57600080fd5b5060ae806100396000396000f300608060405260043610603f576000357c0100000000000000000000000000000000000000000000000000000000900463ffffffff16806307e033cd146044575b600080fd5b348015604f57600080fd5b5060566070565b604051808215151515815260200191505060405180910390f35b6000809054906101000a900460ff16815600a165627a7a7230582071790b275694e6cca304818994f58ff372fd29255a1c754a0d79fb64972759150029",
  "source": "pragma solidity ^0.4.23;\r\n\r\nimport \"./Libraries.sol\";\r\n\r\ncontract BaseContract {\r\n    address public creator;\r\n    uint public time_created;\r\n    UtilLib.class public classtype;\r\n\r\n    event ContractCreated(address indexed creator);\r\n\r\n    modifier iscreator() {\r\n        require(creator == msg.sender);\r\n        _;\r\n    }\r\n\r\n    constructor() public {\r\n        creator = msg.sender;\r\n        time_created = now;\r\n    }\r\n}\r\n\r\ncontract Confirmable {\r\n    bool public data_changable = true;\r\n\r\n    modifier changable() {\r\n        require(data_changable == true);\r\n        _;\r\n    }\r\n}",
  "sourcePath": "C:\\Users\\TuanNH\\Desktop\\eth_prj\\eth_contracts\\contracts\\BaseContracts.sol",
  "compiler": {
    "name": "solc",
    "version": "0.4.24+commit.e67f0147.Emscripten.clang"
  },
  "schemaVersion": "2.0.1",
  "updatedAt": "2018-07-20T17:50:53.865Z"
}