{
  "contractName": "Profile",
  "abi": [
    {
      "constant": true,
      "inputs": [],
      "name": "creator",
      "outputs": [
        {
          "name": "",
          "type": "address"
        }
      ],
      "payable": false,
      "stateMutability": "view",
      "type": "function"
    },
    {
      "constant": true,
      "inputs": [
        {
          "name": "",
          "type": "uint256"
        }
      ],
      "name": "records",
      "outputs": [
        {
          "name": "",
          "type": "address"
        }
      ],
      "payable": false,
      "stateMutability": "view",
      "type": "function"
    },
    {
      "constant": true,
      "inputs": [],
      "name": "time_created",
      "outputs": [
        {
          "name": "",
          "type": "uint256"
        }
      ],
      "payable": false,
      "stateMutability": "view",
      "type": "function"
    },
    {
      "constant": true,
      "inputs": [],
      "name": "hashed_key",
      "outputs": [
        {
          "name": "",
          "type": "bytes32"
        }
      ],
      "payable": false,
      "stateMutability": "view",
      "type": "function"
    },
    {
      "constant": true,
      "inputs": [],
      "name": "classtype",
      "outputs": [
        {
          "name": "",
          "type": "uint8"
        }
      ],
      "payable": false,
      "stateMutability": "view",
      "type": "function"
    },
    {
      "inputs": [
        {
          "name": "_priv_key",
          "type": "string"
        }
      ],
      "payable": false,
      "stateMutability": "nonpayable",
      "type": "constructor"
    },
    {
      "anonymous": false,
      "inputs": [
        {
          "indexed": true,
          "name": "record",
          "type": "address"
        }
      ],
      "name": "RecordAdded",
      "type": "event"
    },
    {
      "anonymous": false,
      "inputs": [
        {
          "indexed": true,
          "name": "creator",
          "type": "address"
        }
      ],
      "name": "ContractCreated",
      "type": "event"
    },
    {
      "constant": false,
      "inputs": [
        {
          "name": "_priv_key",
          "type": "string"
        },
        {
          "name": "_addr",
          "type": "address"
        }
      ],
      "name": "addRecord",
      "outputs": [],
      "payable": false,
      "stateMutability": "nonpayable",
      "type": "function"
    }
  ],
  "bytecode": "0x60806040526000600260016101000a81548160ff0219169083600481111561002357fe5b021790555034801561003457600080fd5b5060405161065938038061065983398101806040528101908080518201929190505050336000806101000a81548173ffffffffffffffffffffffffffffffffffffffff021916908373ffffffffffffffffffffffffffffffffffffffff16021790555042600181905550806040518082805190602001908083835b6020831015156100d457805182526020820191506020810190506020830392506100af565b6001836020036101000a0380198251168184511680821785525050505050509050019150506040518091039020600381600019169055503373ffffffffffffffffffffffffffffffffffffffff167fcf78cf0d6f3d8371e1075c69c492ab4ec5d8cf23a1a239b6a51a1d00be7ca31260405160405180910390a2506104fb8061015e6000396000f300608060405260043610610078576000357c0100000000000000000000000000000000000000000000000000000000900463ffffffff16806302d05d3f1461007d578063172847b5146100d4578063344610671461015d578063639d7a07146101ca578063a2ab2c8c146101f5578063ccccac1f14610228575b600080fd5b34801561008957600080fd5b50610092610261565b604051808273ffffffffffffffffffffffffffffffffffffffff1673ffffffffffffffffffffffffffffffffffffffff16815260200191505060405180910390f35b3480156100e057600080fd5b5061015b600480360381019080803590602001908201803590602001908080601f0160208091040260200160405190810160405280939291908181526020018383808284378201915050505050509192919290803573ffffffffffffffffffffffffffffffffffffffff169060200190929190505050610286565b005b34801561016957600080fd5b5061018860048036038101908080359060200190929190505050610472565b604051808273ffffffffffffffffffffffffffffffffffffffff1673ffffffffffffffffffffffffffffffffffffffff16815260200191505060405180910390f35b3480156101d657600080fd5b506101df6104b0565b6040518082815260200191505060405180910390f35b34801561020157600080fd5b5061020a6104b6565b60405180826000191660001916815260200191505060405180910390f35b34801561023457600080fd5b5061023d6104bc565b6040518082600481111561024d57fe5b60ff16815260200191505060405180910390f35b6000809054906101000a900473ffffffffffffffffffffffffffffffffffffffff1681565b8160035460001916816040518082805190602001908083835b6020831015156102c4578051825260208201915060208101905060208303925061029f565b6001836020036101000a03801982511681845116808217855250505050505090500191505060405180910390206000191614151561030157600080fd5b6001600481111561030e57fe5b8273ffffffffffffffffffffffffffffffffffffffff1663ccccac1f6040518163ffffffff167c0100000000000000000000000000000000000000000000000000000000028152600401602060405180830381600087803b15801561037257600080fd5b505af1158015610386573d6000803e3d6000fd5b505050506040513d602081101561039c57600080fd5b810190808051906020019092919050505060048111156103b857fe5b1415156103c457600080fd5b60048290806001815401808255809150509060018203906000526020600020016000909192909190916101000a81548173ffffffffffffffffffffffffffffffffffffffff021916908373ffffffffffffffffffffffffffffffffffffffff160217905550508173ffffffffffffffffffffffffffffffffffffffff167f39f6893e048738d9e8daf32db14d0e9dabe07a50362174accf031034b1aa9aef60405160405180910390a2505050565b60048181548110151561048157fe5b906000526020600020016000915054906101000a900473ffffffffffffffffffffffffffffffffffffffff1681565b60015481565b60035481565b600260019054906101000a900460ff16815600a165627a7a723058202b0f71e087ec746de14353f9a47659c1004c19306272bd9685921451b30a5db20029",
  "source": "pragma solidity ^0.4.23;\r\n\r\nimport \"./Libraries.sol\";\r\nimport \"./BaseContracts.sol\";\r\nimport \"./Record.sol\";\r\n\r\ncontract Profile is BaseContract {\r\n    UtilLib.class public classtype = UtilLib.class.Profile;\r\n\r\n    bytes32 public hashed_key;\r\n    address[] public records;\r\n\r\n    event RecordAdded(address indexed record);\r\n\r\n    modifier authenicated(string _priv_key) {\r\n        require(keccak256(_priv_key) == hashed_key);\r\n        _;\r\n    }\r\n\r\n    constructor(string _priv_key) BaseContract() public {\r\n        hashed_key = keccak256(_priv_key);\r\n        emit ContractCreated(msg.sender);\r\n    }\r\n\r\n    function addRecord(string _priv_key, address _addr) public authenicated(_priv_key) {\r\n        require(Record(_addr).classtype() == UtilLib.class.Record);\r\n        records.push(_addr);\r\n        emit RecordAdded(_addr);\r\n    }\r\n}",
  "sourcePath": "C:\\Users\\TuanNH\\Desktop\\eth_prj\\eth_contracts\\contracts\\Profile.sol",
  "compiler": {
    "name": "solc",
    "version": "0.4.24+commit.e67f0147.Emscripten.clang"
  },
  "schemaVersion": "2.0.1",
  "updatedAt": "2018-07-20T17:50:53.866Z"
}