{
  "contractName": "Record",
  "abi": [
    {
      "constant": true,
      "inputs": [],
      "name": "creator",
      "outputs": [
        {
          "name": "",
          "type": "address"
        }
      ],
      "payable": false,
      "stateMutability": "view",
      "type": "function"
    },
    {
      "constant": true,
      "inputs": [],
      "name": "data_changable",
      "outputs": [
        {
          "name": "",
          "type": "bool"
        }
      ],
      "payable": false,
      "stateMutability": "view",
      "type": "function"
    },
    {
      "constant": true,
      "inputs": [],
      "name": "time_created",
      "outputs": [
        {
          "name": "",
          "type": "uint256"
        }
      ],
      "payable": false,
      "stateMutability": "view",
      "type": "function"
    },
    {
      "constant": true,
      "inputs": [
        {
          "name": "",
          "type": "uint256"
        }
      ],
      "name": "stages",
      "outputs": [
        {
          "name": "",
          "type": "address"
        }
      ],
      "payable": false,
      "stateMutability": "view",
      "type": "function"
    },
    {
      "constant": true,
      "inputs": [],
      "name": "profile",
      "outputs": [
        {
          "name": "",
          "type": "address"
        }
      ],
      "payable": false,
      "stateMutability": "view",
      "type": "function"
    },
    {
      "constant": true,
      "inputs": [],
      "name": "classtype",
      "outputs": [
        {
          "name": "",
          "type": "uint8"
        }
      ],
      "payable": false,
      "stateMutability": "view",
      "type": "function"
    },
    {
      "inputs": [
        {
          "name": "_addr",
          "type": "address"
        }
      ],
      "payable": false,
      "stateMutability": "nonpayable",
      "type": "constructor"
    },
    {
      "anonymous": false,
      "inputs": [
        {
          "indexed": true,
          "name": "stage",
          "type": "address"
        }
      ],
      "name": "StageAdded",
      "type": "event"
    },
    {
      "anonymous": false,
      "inputs": [
        {
          "indexed": true,
          "name": "_addr",
          "type": "address"
        }
      ],
      "name": "Confirm",
      "type": "event"
    },
    {
      "anonymous": false,
      "inputs": [
        {
          "indexed": true,
          "name": "creator",
          "type": "address"
        }
      ],
      "name": "ContractCreated",
      "type": "event"
    },
    {
      "constant": false,
      "inputs": [
        {
          "name": "_addr",
          "type": "address"
        }
      ],
      "name": "addStage",
      "outputs": [],
      "payable": false,
      "stateMutability": "nonpayable",
      "type": "function"
    },
    {
      "constant": false,
      "inputs": [
        {
          "name": "_priv_key",
          "type": "string"
        }
      ],
      "name": "confirm",
      "outputs": [],
      "payable": false,
      "stateMutability": "nonpayable",
      "type": "function"
    }
  ],
  "bytecode": "0x60806040526001600260016101000a81548160ff02191690831515021790555060016002806101000a81548160ff0219169083600481111561003d57fe5b021790555034801561004e57600080fd5b50604051602080610ac783398101806040528101908080519060200190929190505050336000806101000a81548173ffffffffffffffffffffffffffffffffffffffff021916908373ffffffffffffffffffffffffffffffffffffffff16021790555042600181905550600060048111156100c557fe5b8173ffffffffffffffffffffffffffffffffffffffff1663ccccac1f6040518163ffffffff167c0100000000000000000000000000000000000000000000000000000000028152600401602060405180830381600087803b15801561012957600080fd5b505af115801561013d573d6000803e3d6000fd5b505050506040513d602081101561015357600080fd5b8101908080519060200190929190505050600481111561016f57fe5b14151561017b57600080fd5b80600260036101000a81548173ffffffffffffffffffffffffffffffffffffffff021916908373ffffffffffffffffffffffffffffffffffffffff1602179055503373ffffffffffffffffffffffffffffffffffffffff167fcf78cf0d6f3d8371e1075c69c492ab4ec5d8cf23a1a239b6a51a1d00be7ca31260405160405180910390a2506108b88061020f6000396000f30060806040526004361061008e576000357c0100000000000000000000000000000000000000000000000000000000900463ffffffff16806302d05d3f1461009357806307e033cd146100ea578063639d7a0714610119578063845ddcb214610144578063ab60636c146101b1578063c7ab74a414610208578063c9663dc114610271578063ccccac1f146102b4575b600080fd5b34801561009f57600080fd5b506100a86102ed565b604051808273ffffffffffffffffffffffffffffffffffffffff1673ffffffffffffffffffffffffffffffffffffffff16815260200191505060405180910390f35b3480156100f657600080fd5b506100ff610312565b604051808215151515815260200191505060405180910390f35b34801561012557600080fd5b5061012e610325565b6040518082815260200191505060405180910390f35b34801561015057600080fd5b5061016f6004803603810190808035906020019092919050505061032b565b604051808273ffffffffffffffffffffffffffffffffffffffff1673ffffffffffffffffffffffffffffffffffffffff16815260200191505060405180910390f35b3480156101bd57600080fd5b506101c6610369565b604051808273ffffffffffffffffffffffffffffffffffffffff1673ffffffffffffffffffffffffffffffffffffffff16815260200191505060405180910390f35b34801561021457600080fd5b5061026f600480360381019080803590602001908201803590602001908080601f016020809104026020016040519081016040528093929190818152602001838380828437820191505050505050919291929050505061038f565b005b34801561027d57600080fd5b506102b2600480360381019080803573ffffffffffffffffffffffffffffffffffffffff1690602001909291905050506106e9565b005b3480156102c057600080fd5b506102c961087a565b604051808260048111156102d957fe5b60ff16815260200191505060405180910390f35b6000809054906101000a900473ffffffffffffffffffffffffffffffffffffffff1681565b600260019054906101000a900460ff1681565b60015481565b60038181548110151561033a57fe5b906000526020600020016000915054906101000a900473ffffffffffffffffffffffffffffffffffffffff1681565b600260039054906101000a900473ffffffffffffffffffffffffffffffffffffffff1681565b60011515600260019054906101000a900460ff1615151415156103b157600080fd5b3373ffffffffffffffffffffffffffffffffffffffff166000809054906101000a900473ffffffffffffffffffffffffffffffffffffffff1673ffffffffffffffffffffffffffffffffffffffff1614151561040c57600080fd5b80600260039054906101000a900473ffffffffffffffffffffffffffffffffffffffff1673ffffffffffffffffffffffffffffffffffffffff1663a2ab2c8c6040518163ffffffff167c0100000000000000000000000000000000000000000000000000000000028152600401602060405180830381600087803b15801561049357600080fd5b505af11580156104a7573d6000803e3d6000fd5b505050506040513d60208110156104bd57600080fd5b810190808051906020019092919050505060001916816040518082805190602001908083835b60208310151561050857805182526020820191506020810190506020830392506104e3565b6001836020036101000a03801982511681845116808217855250505050505090500191505060405180910390206000191614151561054557600080fd5b6000600260016101000a81548160ff021916908315150217905550600260039054906101000a900473ffffffffffffffffffffffffffffffffffffffff1673ffffffffffffffffffffffffffffffffffffffff1663172847b583306040518363ffffffff167c010000000000000000000000000000000000000000000000000000000002815260040180806020018373ffffffffffffffffffffffffffffffffffffffff1673ffffffffffffffffffffffffffffffffffffffff168152602001828103825284818151815260200191508051906020019080838360005b8381101561063d578082015181840152602081019050610622565b50505050905090810190601f16801561066a5780820380516001836020036101000a031916815260200191505b509350505050600060405180830381600087803b15801561068a57600080fd5b505af115801561069e573d6000803e3d6000fd5b505050503373ffffffffffffffffffffffffffffffffffffffff167fc952b93c48fdd136bb09432bd213d57ca429753ac2d0c2a23bb59b129b82e59c60405160405180910390a25050565b60011515600260019054906101000a900460ff16151514151561070b57600080fd5b6002600481111561071857fe5b8173ffffffffffffffffffffffffffffffffffffffff1663ccccac1f6040518163ffffffff167c0100000000000000000000000000000000000000000000000000000000028152600401602060405180830381600087803b15801561077c57600080fd5b505af1158015610790573d6000803e3d6000fd5b505050506040513d60208110156107a657600080fd5b810190808051906020019092919050505060048111156107c257fe5b1415156107ce57600080fd5b60038190806001815401808255809150509060018203906000526020600020016000909192909190916101000a81548173ffffffffffffffffffffffffffffffffffffffff021916908373ffffffffffffffffffffffffffffffffffffffff160217905550508073ffffffffffffffffffffffffffffffffffffffff167f8c827d44998e5cd9c987031d46ff99b20fa81adeb5ab66bde0c742056c4c366f60405160405180910390a250565b6002809054906101000a900460ff16815600a165627a7a723058205536457e072e958cf17b0f8d4bd3eac39804954964a09820d5baaf89c8552d790029",
  "source": "pragma solidity ^0.4.23;\r\n\r\nimport \"./Libraries.sol\";\r\nimport \"./BaseContracts.sol\";\r\nimport \"./Profile.sol\";\r\nimport \"./Stages.sol\";\r\n\r\ncontract Record is BaseContract, Confirmable {\r\n    UtilLib.class public classtype = UtilLib.class.Record;\r\n\r\n    address public profile;\r\n    address[] public stages;\r\n\r\n    event StageAdded(address indexed stage);\r\n    event Confirm(address indexed _addr);\r\n\r\n    modifier authenicated(string _priv_key) {\r\n        require(keccak256(_priv_key) == Profile(profile).hashed_key());\r\n        _;\r\n    }\r\n\r\n    constructor(address _addr) BaseContract() public {\r\n        require(Profile(_addr).classtype() == UtilLib.class.Profile);\r\n        profile = _addr;\r\n        emit ContractCreated(msg.sender);\r\n    }\r\n\r\n    function addStage(address _addr) public changable {\r\n        require(Stage(_addr).classtype() == UtilLib.class.Stage);\r\n        stages.push(_addr);\r\n        emit StageAdded(_addr);\r\n    }\r\n\r\n    function confirm(string _priv_key) public changable iscreator authenicated(_priv_key) {\r\n        data_changable = false;\r\n        Profile(profile).addRecord(_priv_key, address(this));\r\n        emit Confirm(msg.sender);\r\n    }\r\n}",
  "sourcePath": "C:\\Users\\TuanNH\\Desktop\\eth_prj\\eth_contracts\\contracts\\Record.sol",
  "compiler": {
    "name": "solc",
    "version": "0.4.24+commit.e67f0147.Emscripten.clang"
  },
  "schemaVersion": "2.0.1",
  "updatedAt": "2018-07-20T17:50:53.866Z"
}