{
  "contractName": "Stage",
  "abi": [
    {
      "constant": true,
      "inputs": [],
      "name": "creator",
      "outputs": [
        {
          "name": "",
          "type": "address"
        }
      ],
      "payable": false,
      "stateMutability": "view",
      "type": "function"
    },
    {
      "constant": true,
      "inputs": [],
      "name": "data_changable",
      "outputs": [
        {
          "name": "",
          "type": "bool"
        }
      ],
      "payable": false,
      "stateMutability": "view",
      "type": "function"
    },
    {
      "constant": true,
      "inputs": [],
      "name": "record",
      "outputs": [
        {
          "name": "",
          "type": "address"
        }
      ],
      "payable": false,
      "stateMutability": "view",
      "type": "function"
    },
    {
      "constant": true,
      "inputs": [],
      "name": "time_created",
      "outputs": [
        {
          "name": "",
          "type": "uint256"
        }
      ],
      "payable": false,
      "stateMutability": "view",
      "type": "function"
    },
    {
      "constant": true,
      "inputs": [],
      "name": "department",
      "outputs": [
        {
          "name": "",
          "type": "uint8"
        }
      ],
      "payable": false,
      "stateMutability": "view",
      "type": "function"
    },
    {
      "constant": true,
      "inputs": [],
      "name": "classtype",
      "outputs": [
        {
          "name": "",
          "type": "uint8"
        }
      ],
      "payable": false,
      "stateMutability": "view",
      "type": "function"
    },
    {
      "constant": true,
      "inputs": [],
      "name": "stagetype",
      "outputs": [
        {
          "name": "",
          "type": "uint8"
        }
      ],
      "payable": false,
      "stateMutability": "view",
      "type": "function"
    },
    {
      "inputs": [
        {
          "name": "_addr",
          "type": "address"
        },
        {
          "name": "_department",
          "type": "uint256"
        }
      ],
      "payable": false,
      "stateMutability": "nonpayable",
      "type": "constructor"
    },
    {
      "anonymous": false,
      "inputs": [
        {
          "indexed": true,
          "name": "_addr",
          "type": "address"
        }
      ],
      "name": "Confirm",
      "type": "event"
    },
    {
      "anonymous": false,
      "inputs": [
        {
          "indexed": true,
          "name": "creator",
          "type": "address"
        }
      ],
      "name": "ContractCreated",
      "type": "event"
    },
    {
      "constant": false,
      "inputs": [],
      "name": "confirm",
      "outputs": [],
      "payable": false,
      "stateMutability": "nonpayable",
      "type": "function"
    }
  ],
  "bytecode": "0x60806040526001600260016101000a81548160ff02191690831515021790555060028060026101000a81548160ff0219169083600481111561003d57fe5b021790555034801561004e57600080fd5b5060405160408061071f8339810180604052810190808051906020019092919080519060200190929190505050336000806101000a81548173ffffffffffffffffffffffffffffffffffffffff021916908373ffffffffffffffffffffffffffffffffffffffff16021790555042600181905550600160048111156100cf57fe5b8273ffffffffffffffffffffffffffffffffffffffff1663ccccac1f6040518163ffffffff167c0100000000000000000000000000000000000000000000000000000000028152600401602060405180830381600087803b15801561013357600080fd5b505af1158015610147573d6000803e3d6000fd5b505050506040513d602081101561015d57600080fd5b8101908080519060200190929190505050600481111561017957fe5b14151561018557600080fd5b81600260046101000a81548173ffffffffffffffffffffffffffffffffffffffff021916908373ffffffffffffffffffffffffffffffffffffffff16021790555080601a8111156101d257fe5b600260186101000a81548160ff0219169083601a8111156101ef57fe5b02179055503373ffffffffffffffffffffffffffffffffffffffff167fcf78cf0d6f3d8371e1075c69c492ab4ec5d8cf23a1a239b6a51a1d00be7ca31260405160405180910390a250506104d7806102486000396000f30060806040526004361061008e576000357c0100000000000000000000000000000000000000000000000000000000900463ffffffff16806302d05d3f1461009357806307e033cd146100ea578063266cf10914610119578063639d7a07146101705780637022b58e1461019b5780639ca65163146101b2578063ccccac1f146101eb578063dd5ab87a14610224575b600080fd5b34801561009f57600080fd5b506100a861025d565b604051808273ffffffffffffffffffffffffffffffffffffffff1673ffffffffffffffffffffffffffffffffffffffff16815260200191505060405180910390f35b3480156100f657600080fd5b506100ff610282565b604051808215151515815260200191505060405180910390f35b34801561012557600080fd5b5061012e610295565b604051808273ffffffffffffffffffffffffffffffffffffffff1673ffffffffffffffffffffffffffffffffffffffff16815260200191505060405180910390f35b34801561017c57600080fd5b506101856102bb565b6040518082815260200191505060405180910390f35b3480156101a757600080fd5b506101b06102c1565b005b3480156101be57600080fd5b506101c7610473565b6040518082601a8111156101d757fe5b60ff16815260200191505060405180910390f35b3480156101f757600080fd5b50610200610486565b6040518082600481111561021057fe5b60ff16815260200191505060405180910390f35b34801561023057600080fd5b50610239610498565b6040518082600281111561024957fe5b60ff16815260200191505060405180910390f35b6000809054906101000a900473ffffffffffffffffffffffffffffffffffffffff1681565b600260019054906101000a900460ff1681565b600260049054906101000a900473ffffffffffffffffffffffffffffffffffffffff1681565b60015481565b60011515600260019054906101000a900460ff1615151415156102e357600080fd5b3373ffffffffffffffffffffffffffffffffffffffff166000809054906101000a900473ffffffffffffffffffffffffffffffffffffffff1673ffffffffffffffffffffffffffffffffffffffff1614151561033e57600080fd5b6000600260016101000a81548160ff021916908315150217905550600260049054906101000a900473ffffffffffffffffffffffffffffffffffffffff1673ffffffffffffffffffffffffffffffffffffffff1663c9663dc1306040518263ffffffff167c0100000000000000000000000000000000000000000000000000000000028152600401808273ffffffffffffffffffffffffffffffffffffffff1673ffffffffffffffffffffffffffffffffffffffff168152602001915050600060405180830381600087803b15801561041657600080fd5b505af115801561042a573d6000803e3d6000fd5b505050503373ffffffffffffffffffffffffffffffffffffffff167fc952b93c48fdd136bb09432bd213d57ca429753ac2d0c2a23bb59b129b82e59c60405160405180910390a2565b600260189054906101000a900460ff1681565b6002809054906101000a900460ff1681565b600260039054906101000a900460ff16815600a165627a7a72305820917b17670099c67c180a57289affb31faf489df9d54cee5beb6cea36f2435ff20029",
  "source": "pragma solidity ^0.4.23;\r\n\r\nimport \"./Libraries.sol\";\r\nimport \"./BaseContracts.sol\";\r\nimport \"./Record.sol\";\r\nimport \"./TreatmentMethod.sol\";\r\nimport \"./File.sol\";\r\n\r\ncontract Stage is BaseContract, Confirmable {\r\n    UtilLib.class public classtype = UtilLib.class.Stage;\r\n    UtilLib.stage public stagetype;\r\n    address public record;\r\n    UtilLib.department public department;\r\n\r\n    event Confirm(address indexed _addr);\r\n\r\n    constructor(address _addr, uint _department) BaseContract() public { \r\n        require(Record(_addr).classtype() == UtilLib.class.Record);\r\n        record = _addr;\r\n        department = UtilLib.department(_department);\r\n        emit ContractCreated(msg.sender);\r\n    }\r\n\r\n    function confirm() public changable iscreator {\r\n        data_changable = false;\r\n        Record(record).addStage(address(this));\r\n        emit Confirm(msg.sender);\r\n    }\r\n}\r\n\r\ncontract TreatmentStage is Stage {\r\n    UtilLib.stage public stagetype = UtilLib.stage.TreatmentStage;\r\n\r\n    address[] public treatment_methods;\r\n\r\n    event TreatmentMethodAdded(address indexed addr);\r\n\r\n    constructor(address _addr, uint _department) Stage(_addr, _department) public {}\r\n\r\n    function addTreatmentMethod(address _addr) public changable iscreator {\r\n        require(TreatmentMethod(_addr).classtype() == UtilLib.class.TreatmentMethod);\r\n        treatment_methods.push(_addr);\r\n        emit TreatmentMethodAdded(_addr);\r\n    }\r\n}\r\n\r\ncontract DiagnoseStage is Stage {\r\n    UtilLib.stage public stagetype = UtilLib.stage.DiagnoseStage;\r\n\r\n    string[] public manifestation;\r\n    string public diagnose;\r\n\r\n    event ManifestationAdded(string _manifestation);\r\n    event DiagnoseSet(string _diagnose);\r\n\r\n    constructor(address _addr, uint _department) Stage(_addr, _department) public {}\r\n\r\n    function addManifestation(string _manifestation) public changable iscreator {\r\n        manifestation.push(_manifestation);\r\n        emit ManifestationAdded(_manifestation);\r\n    }\r\n\r\n    function setDiagnose(string _diagnose) public changable iscreator {\r\n        diagnose = _diagnose;\r\n        emit DiagnoseSet(_diagnose);\r\n    }\r\n}\r\n\r\ncontract TestStage is Stage {\r\n    UtilLib.stage public stagetype = UtilLib.stage.TestStage;\r\n\r\n    address[] public files;\r\n\r\n    event FileAdded(address indexed file);\r\n\r\n    constructor(address _addr, uint _department) Stage(_addr, _department) public {}\r\n\r\n    function pushFile(address _addr) public changable iscreator {\r\n        require(File(_addr).classtype() == UtilLib.class.File);\r\n        files.push(_addr);\r\n        emit FileAdded(_addr);\r\n    }\r\n}",
  "sourcePath": "C:\\Users\\TuanNH\\Desktop\\eth_prj\\eth_contracts\\contracts\\Stages.sol",
  "compiler": {
    "name": "solc",
    "version": "0.4.24+commit.e67f0147.Emscripten.clang"
  },
  "schemaVersion": "2.0.1",
  "updatedAt": "2018-07-20T17:50:53.868Z"
}