{
  "contractName": "TreatmentMethod",
  "abi": [
    {
      "constant": true,
      "inputs": [],
      "name": "creator",
      "outputs": [
        {
          "name": "",
          "type": "address"
        }
      ],
      "payable": false,
      "stateMutability": "view",
      "type": "function"
    },
    {
      "constant": true,
      "inputs": [],
      "name": "name",
      "outputs": [
        {
          "name": "",
          "type": "string"
        }
      ],
      "payable": false,
      "stateMutability": "view",
      "type": "function"
    },
    {
      "constant": true,
      "inputs": [],
      "name": "time_created",
      "outputs": [
        {
          "name": "",
          "type": "uint256"
        }
      ],
      "payable": false,
      "stateMutability": "view",
      "type": "function"
    },
    {
      "constant": true,
      "inputs": [],
      "name": "description",
      "outputs": [
        {
          "name": "",
          "type": "string"
        }
      ],
      "payable": false,
      "stateMutability": "view",
      "type": "function"
    },
    {
      "constant": true,
      "inputs": [],
      "name": "start_time",
      "outputs": [
        {
          "name": "",
          "type": "uint256"
        }
      ],
      "payable": false,
      "stateMutability": "view",
      "type": "function"
    },
    {
      "constant": true,
      "inputs": [],
      "name": "stop_time",
      "outputs": [
        {
          "name": "",
          "type": "uint256"
        }
      ],
      "payable": false,
      "stateMutability": "view",
      "type": "function"
    },
    {
      "constant": true,
      "inputs": [],
      "name": "classtype",
      "outputs": [
        {
          "name": "",
          "type": "uint8"
        }
      ],
      "payable": false,
      "stateMutability": "view",
      "type": "function"
    },
    {
      "inputs": [
        {
          "name": "_addr",
          "type": "address"
        },
        {
          "name": "_name",
          "type": "string"
        },
        {
          "name": "_start_time",
          "type": "uint256"
        },
        {
          "name": "_stop_time",
          "type": "uint256"
        },
        {
          "name": "_description",
          "type": "string"
        }
      ],
      "payable": false,
      "stateMutability": "nonpayable",
      "type": "constructor"
    },
    {
      "anonymous": false,
      "inputs": [
        {
          "indexed": true,
          "name": "creator",
          "type": "address"
        }
      ],
      "name": "ContractCreated",
      "type": "event"
    }
  ],
  "bytecode": "0x60806040526004600260016101000a81548160ff0219169083600481111561002357fe5b021790555034801561003457600080fd5b506040516107f33803806107f38339810180604052810190808051906020019092919080518201929190602001805190602001909291908051906020019092919080518201929190505050336000806101000a81548173ffffffffffffffffffffffffffffffffffffffff021916908373ffffffffffffffffffffffffffffffffffffffff16021790555042600181905550600260048111156100d357fe5b8573ffffffffffffffffffffffffffffffffffffffff1663ccccac1f6040518163ffffffff167c0100000000000000000000000000000000000000000000000000000000028152600401602060405180830381600087803b15801561013757600080fd5b505af115801561014b573d6000803e3d6000fd5b505050506040513d602081101561016157600080fd5b8101908080519060200190929190505050600481111561017d57fe5b14151561018957600080fd5b60028081111561019557fe5b8573ffffffffffffffffffffffffffffffffffffffff1663dd5ab87a6040518163ffffffff167c0100000000000000000000000000000000000000000000000000000000028152600401602060405180830381600087803b1580156101f957600080fd5b505af115801561020d573d6000803e3d6000fd5b505050506040513d602081101561022357600080fd5b8101908080519060200190929190505050600281111561023f57fe5b14151561024b57600080fd5b83600390805190602001906102619291906102d4565b50826004819055508160058190555080600690805190602001906102869291906102d4565b503373ffffffffffffffffffffffffffffffffffffffff167fcf78cf0d6f3d8371e1075c69c492ab4ec5d8cf23a1a239b6a51a1d00be7ca31260405160405180910390a25050505050610379565b828054600181600116156101000203166002900490600052602060002090601f016020900481019282601f1061031557805160ff1916838001178555610343565b82800160010185558215610343579182015b82811115610342578251825591602001919060010190610327565b5b5090506103509190610354565b5090565b61037691905b8082111561037257600081600090555060010161035a565b5090565b90565b61046b806103886000396000f300608060405260043610610083576000357c0100000000000000000000000000000000000000000000000000000000900463ffffffff16806302d05d3f1461008857806306fdde03146100df578063639d7a071461016f5780637284e4161461019a578063834ee4171461022a5780639ec6099514610255578063ccccac1f14610280575b600080fd5b34801561009457600080fd5b5061009d6102b9565b604051808273ffffffffffffffffffffffffffffffffffffffff1673ffffffffffffffffffffffffffffffffffffffff16815260200191505060405180910390f35b3480156100eb57600080fd5b506100f46102de565b6040518080602001828103825283818151815260200191508051906020019080838360005b83811015610134578082015181840152602081019050610119565b50505050905090810190601f1680156101615780820380516001836020036101000a031916815260200191505b509250505060405180910390f35b34801561017b57600080fd5b5061018461037c565b6040518082815260200191505060405180910390f35b3480156101a657600080fd5b506101af610382565b6040518080602001828103825283818151815260200191508051906020019080838360005b838110156101ef5780820151818401526020810190506101d4565b50505050905090810190601f16801561021c5780820380516001836020036101000a031916815260200191505b509250505060405180910390f35b34801561023657600080fd5b5061023f610420565b6040518082815260200191505060405180910390f35b34801561026157600080fd5b5061026a610426565b6040518082815260200191505060405180910390f35b34801561028c57600080fd5b5061029561042c565b604051808260048111156102a557fe5b60ff16815260200191505060405180910390f35b6000809054906101000a900473ffffffffffffffffffffffffffffffffffffffff1681565b60038054600181600116156101000203166002900480601f0160208091040260200160405190810160405280929190818152602001828054600181600116156101000203166002900480156103745780601f1061034957610100808354040283529160200191610374565b820191906000526020600020905b81548152906001019060200180831161035757829003601f168201915b505050505081565b60015481565b60068054600181600116156101000203166002900480601f0160208091040260200160405190810160405280929190818152602001828054600181600116156101000203166002900480156104185780601f106103ed57610100808354040283529160200191610418565b820191906000526020600020905b8154815290600101906020018083116103fb57829003601f168201915b505050505081565b60045481565b60055481565b600260019054906101000a900460ff16815600a165627a7a72305820a73d25af49a9467e3ac18add0e22fbbdceb7b4d61fe81f53cace719934c8732f0029",
  "source": "pragma solidity ^0.4.23;\r\n\r\nimport \"./Libraries.sol\";\r\nimport \"./BaseContracts.sol\";\r\nimport \"./Stages.sol\";\r\n\r\ncontract TreatmentMethod is BaseContract {\r\n    UtilLib.class public classtype = UtilLib.class.TreatmentMethod;\r\n    \r\n    string public name;\r\n    uint public start_time;\r\n    uint public stop_time;\r\n    string public description;\r\n\r\n    constructor(address _addr, string _name, uint _start_time, uint _stop_time, string _description) public {\r\n        require(TreatmentStage(_addr).classtype() == UtilLib.class.Stage);\r\n        require(TreatmentStage(_addr).stagetype() == UtilLib.stage.TreatmentStage);\r\n        name = _name;\r\n        start_time = _start_time;\r\n        stop_time = _stop_time;\r\n        description = _description;\r\n        emit ContractCreated(msg.sender);\r\n    }\r\n}",
  "sourcePath": "C:\\Users\\TuanNH\\Desktop\\eth_prj\\eth_contracts\\contracts\\TreatmentMethod.sol",
  "compiler": {
    "name": "solc",
    "version": "0.4.24+commit.e67f0147.Emscripten.clang"
  },
  "schemaVersion": "2.0.1",
  "updatedAt": "2018-07-20T17:50:53.871Z"
}